:020000040800F2
:1000000098060020890100088D0A0008D907000819
:100010008509000843020008A5120008000000003E
:10002000000000000000000000000000F50E0008C5
:100030004506000800000000B30E0008E10F0008AC
:10004000A3010008A3010008A3010008A301000800
:10005000A3010008A3010008A3010008A3010008F0
:10006000A3010008A3010008A3010008A3010008E0
:10007000A3010008A3010008A3010008A3010008D0
:10008000A3010008A3010008A3010008A3010008C0
:10009000A3010008A3010008A3010008A3010008B0
:1000A000A3010008A3010008A3010008A3010008A0
:1000B00045100008A3010008A3010008A3010008DF
:1000C000A3010008A3010008A3010008A301000880
:1000D000A3010008A3010008A3010008A301000870
:1000E000A3010008A3010008A301000800F002F822
:1000F00000F03AF80AA090E8000C82448344AAF188
:100100000107DA4501D100F02FF8AFF2090EBAE885
:100110000F0013F0010F18BFFB1A43F0010318473B
:10012000E41D0000041E0000103A24BF78C878C106
:10013000FAD8520724BF30C830C144BF04680C60ED
:10014000704700000023002400250026103A28BF35
:1001500078C1FBD8520728BF30C148BF0B60704739
:100160001FB51FBD10B510BD00F031F81146FFF7E7
:10017000F7FF01F0D7FA00F04FF803B4FFF7F2FFF2
:1001800003BC00F057F800000948804709480047C1
:10019000FEE7FEE7FEE7FEE7FEE7FEE7FEE7FEE737
:1001A000FEE7FEE704480549054A064B7047000094
:1001B000E50F0008ED0000089800002098060020D8
:1001C00098020020980200207047704770477546DB
:1001D00000F02CF8AE4605006946534620F00700B3
:1001E000854618B020B5FFF7DDFFBDE820404FF091
:1001F00000064FF000074FF000084FF0000B21F011
:100200000701AC46ACE8C009ACE8C009ACE8C009DD
:10021000ACE8C0098D46704710B50446AFF30080C6
:100220002046BDE81040FFF7A8BF00000048704717
:100230003400002001491820ABBEFEE72600020072
:10024000704700BFFEE7000008B50121082000F05C
:1002500041FE10208DF803000002ADF800000320DD
:100260008DF802006946044800F010FA4FF48051FE
:10027000014800F0AAFA08BD000C014010B50024A6
:10028000002000F045F804E0601CC4B2012000F03A
:10029000E6F94FF400510F4800F083FA08B1642CDE
:1002A000F2DB642C01DB012010BD002404E0601CA3
:1002B000C4B2012000F0D3F94FF40051054800F01A
:1002C00070FA08B9642CF2DB642C01DB0120EBE747
:1002D0000020E9E7000C014008B50121082000F0EA
:1002E000F9FD4FF40050ADF8000014208DF8030024
:1002F00003208DF802006946044800F0C7F94FF466
:100300000051024800F061FA08BD0000000C0140F5
:1003100038B5044654B14FF40050ADF80000032046
:100320008DF8020010208DF8030006E04FF4005015
:10033000ADF8000004208DF803006946014800F084
:10034000A5F938BD000C014010B5002404E0601C84
:10035000C4B2012000F083F94FF40051104800F0BE
:1003600020FA08B1642CF2DB002404E0601CC4B263
:10037000012000F074F94FF40051094800F011FA1F
:1003800008B9642CF2DB232000F069F94FF4005126
:10039000034800F006FA08B1012010BD0020FCE778
:1003A000000C014070B50025002407E0FFF7CCFFEA
:1003B00010B1802020410543601CC4B2082CF5DB3D
:1003C000284670BD7CB5054600F02CF8FFF756FFB7
:1003D00018BB002405E0FFF7E5FF0DF80400601CE2
:1003E000C4B2052CF7DB9DF800009DF8011008440D
:1003F0009DF8021008449DF8031008449DF804106D
:1004000088420CD1002405E01DF8040040B22855B4
:10041000601CC4B2052CF7DB01E001207CBD00208C
:10042000FCE7000010B50120FFF772FF4FF4005108
:10043000074800F0C8F9122000F005F94FF4005108
:10044000034800F0C2F9142000F009F910BD0000C3
:10045000000C014070B504460D46287810B31748CB
:10046000008800B30122A11C1548006801F0D4F8EF
:1004700013480068401C1249086010480088401E5C
:100480000E490880012221460D48006801F0C4F899
:100490000B480068401C0A49086008480088401E54
:1004A0000649088009E04FF4805005490860401073
:1004B00002490880400001F0FAF870BD06000020F3
:1004C000080000202DE9F8438046894615461E465F
:1004D000089F0024002000903878002866D12888E2
:1004E00040F2AA21884205DB002028804FF480508A
:1004F00030605BE0022452E002226946306801F07D
:10050000B2F89DF90000401C18B19DF90100401C93
:10051000F0B9E0B245A2082100F097FCE0B244A295
:10052000092100F092FCE0B242A20B2100F08DFC08
:10053000E0B241A20D2100F088FCE0B23CA20E2105
:1005400000F083FCE0B23DA2102100F07EFC21E02F
:10055000E0B236A2082100F078FC9DF90020E0B25C
:100560000223092100F01CFCE0B232A20B2100F0B2
:100570006CFCE0B230A20D2100F067FC9DF9012077
:10058000E0B202230E2100F00BFCE0B22BA21021FE
:1005900000F05BFC3068801C3060601C44B2052CAD
:1005A000AADB012038702888401C28802A88032371
:1005B0000A21012000F0F4FB98F80000032807D07E
:1005C00004211F4800F0EDF820B999F8000008B1A7
:1005D0000020387098F80000042807D0012118483E
:1005E00000F0DFF8A0B999F8000088B10020387059
:1005F0002888012806D140F2A920288041F6F6700B
:10060000306005E02888801E288030680C38306013
:1006100098F80000022806D1002038704FF480506E
:10062000306000202880BDE8F8830000280000002A
:100630002D2D0000210000002900000025000000F1
:1006400000080140704700B5034603E04FF47A709C
:1006500000F005F8181EA3F10103F7D100BD00EB6F
:10066000C001C9004FF0E0225161002191610521D4
:10067000116100BF4FF0E021096901F480310029C8
:10068000F8D004214FF0E022116170472DE9F041CC
:10069000024600250026002000230024002791F8B0
:1006A00003C00CF00F0591F803C00CF0100CBCF166
:1006B000000F03D091F802C04CEA050591F800C084
:1006C000BCF1000F31D0146800202BE04FF0010C7A
:1006D0000CFA00F3B1F800C00CEA03069E4220D1E8
:1006E00083004FF00F0C0CFA03F7BC4305FA03FC30
:1006F0004CEA040491F803C0BCF1280F06D14FF076
:10070000010C0CFA00FCC2F814C00AE091F803C016
:10071000BCF1480F05D14FF0010C0CFA00FCC2F8F7
:1007200010C0401C0828D1D31460B1F800C0BCF13F
:10073000FF0F34DD546800202EE000F1080C4FF06C
:10074000010808FA0CF3B1F800C00CEA03069E4257
:1007500021D183004FF00F0C0CFA03F7BC4305FACC
:1007600003FC4CEA040491F803C0BCF1280F05D146
:1007700000F1080C08FA0CF8C2F8148091F803C0D4
:10078000BCF1480F07D100F1080C4FF0010808FA3E
:100790000CF8C2F81080401C0828CED35460BDE885
:1007A000F0810246002093680B400BB1012000E06D
:1007B0000020704702460020D3680B400BB1012097
:1007C00000E00020704741617047016170470AB145
:1007D000016100E04161704700BFFEE710B500F025
:1007E00033FA00F015FF00F06FF800F0AFF8FFF7F4
:1007F00073FDFFF729FD00F0A9F800F015FD10BD0D
:1008000010B5002440210C48FFF7CBFF00B90124AC
:1008100010210948FFF7C5FF00B90224042106484A
:10082000FFF7BFFF00B9032401210348FFF7B9FF19
:1008300000B90424204610BD0008014010B51A4834
:1008400000781A490870FFF7DBFF1749087017484E
:100850000078012806D10846007818B9012014490B
:1008600008701FE011480078022806D10E48007871
:1008700018B902200E49087014E00C4800780328CB
:1008800006D10948007818B903200949087009E021
:1008900006480078042805D10348007810B90420E0
:1008A0000349087010BD0000010000200200002074
:1008B000000000200020034908780021014A11703F
:1008C000704700000000002008B50121042000F05E
:1008D00001FB48208DF803005520ADF800000320EF
:1008E0008DF8020069460248FFF7D0FE08BD0000FF
:1008F0000008014010B54FF480410848FFF75AFF47
:1009000028B94FF480410548FFF75FFF04E04FF43A
:1009100080410248FFF757FF10BD0000000C014066
:1009200010B54FF400410848FFF744FF28B94FF4D1
:1009300000410548FFF749FF04E04FF40041024839
:10094000FFF741FF10BD0000000C014008B5012178
:10095000082000F0BFFA10208DF803004FF440404B
:10096000ADF8000003208DF8020069460448FFF747
:100970008DFE4FF440410248FFF727FF08BD0000FD
:10098000000C014000BFFEE708B50121042000F083
:10099000A1FA10208DF803004FF49850ADF8000034
:1009A00003208DF8020069460B48FFF76FFE4820D0
:1009B0008DF803004FF40060ADF8000003208DF8BF
:1009C000020069460448FFF761FE012000F052F87A
:1009D000002000F043F808BD0008014010B54FF4B6
:1009E00000610248FFF7DDFE10BD00000008014075
:1009F00010B5002000F03EF810BD10B5012000F049
:100A000039F810BD70B505460026002400BF14E07B
:100A10008021214101EA050000F014F8012000F0D6
:100A20001DF8FFF7DBFF012802D18020204106439B
:100A3000002000F013F8601CC4B2082CE8DB30463C
:100A400070BD000010B5044622464FF48071024884
:100A5000FFF7BDFE10BD00000008014010B50446C0
:100A600022464FF400710248FFF7B1FE10BD0000AE
:100A70000008014010B5044622464FF48051024858
:100A8000FFF7A5FE10BD0000000801407047000000
:100A900070B5002100230F22C47804B3154C2468DC
:100AA00004F4E064C4F5E064210AC1F10403CA401F
:100AB000447804FA03F184781440214309010E4C70
:100AC0000678A155047804F01F050124AC40057890
:100AD0006D11AD0005F1E025C5F8004109E004788D
:100AE00004F01F050124AC40044D0678761145F84A
:100AF000264070BD0CED00E000E400E080E100E085
:100B000002490143024A1160704700000000FA05E3
:100B10000CED00E070B500240EE00021204600F04E
:100B2000F4F8002504E0002000F0B3F9681CC5B219
:100B3000802DF8DB601CC4B2082CEEDB70BD000019
:100B400008B50121082000F0C5F914208DF8030034
:100B500003208DF802004FF48070ADF80000694664
:100B60000A48FFF793FD4FF40070ADF800006946A6
:100B70000648FFF78BFD012211020448FFF727FE0C
:100B8000012251020148FFF722FE08BD000C01407E
:100B900070B50546002419E080202041284008B1A6
:100BA000012000E0002002464FF400710E48FFF7DC
:100BB0000EFE012211020C48FFF709FE00224FF43D
:100BC00080710948FFF703FE601CC4B2082CE3DB08
:100BD000012211020448FFF7FAFD00224FF4807150
:100BE0000148FFF7F4FD70BD000C014010B5012273
:100BF00051020A48FFF7EBFD012211020748FFF7F7
:100C0000E6FD00224FF400710448FFF7E0FD0022EA
:100C10004FF480710148FFF7DAFD10BD000C014070
:100C200010B500224FF400710648FFF7D0FD0122F5
:100C300011020448FFF7CBFD012251020148FFF7E2
:100C4000C6FD10BD000C014070B5002406E0002573
:100C500000E06D1CB5F57A7FFBD3641CB4F57A7F98
:100C6000F5D3FFF76DFFAE2000F003F9D52000F0BB
:100C700000F9802000F0FDF8A82000F0FAF83F20ED
:100C800000F0F7F8D32000F0F4F8002000F0F1F8BD
:100C9000402000F0EEF8A12000F0EBF8C82000F0B2
:100CA000E8F8DA2000F0E5F8122000F0E2F8812000
:100CB00000F0DFF8CF2000F0DCF8D92000F0D9F800
:100CC000F12000F0D6F8DB2000F0D3F8302000F05F
:100CD000D0F8A42000F0CDF8A62000F0CAF88D20AE
:100CE00000F0C7F8142000F0C4F8AF2000F0C1F8FD
:100CF000FFF710FF70BD10B50246012000E0504321
:100D00000B1EA1F10101FAD110BD70B505460C46CC
:100D100045F0B00000F0ADF8102141EA141000F0E9
:100D2000A8F804F00F0000F0A4F870BD2DE9F04120
:100D300005460E461746721ED206110E6A1E520650
:100D4000100EFFF7E2FF002409E0A7F12001134A8B
:100D500002EB0111085D00F09CF8601CC4B2082C85
:100D6000F3DB721ED206110E6A1E012303EB420250
:100D7000D0B2FFF7CAFF00240BE0A7F12001074A19
:100D800002EB011204F10801505C00F082F8601CD3
:100D9000C4B2082CF1DBBDE8F08100001419000892
:100DA0002DE9F04780460E4617461D46002415E003
:100DB000281B411E0A20FFF79EFFB7FBF0F00A2117
:100DC000B0FBF1F201FB120000F130093019C1B2A1
:100DD0004A464046FFF7AAFF601CC4B2AC42E7DBBC
:100DE000BDE8F0872DE9F0478146884615461E4646
:100DF000002D06DB202241464846FFF797FF2F468D
:100E000005E02D2241464846FFF790FF6F4200243F
:100E100017E0301B411E0A20FFF76DFFB7FBF0F013
:100E20000A21B0FBF1F201FB120000F1300A08EBDD
:100E30000400401CC1B252464846FFF777FF601CD1
:100E4000C4B2B442E5DBBDE8F0872DE9F0410746C6
:100E50000E461546002407E02A5D3019C1B2384617
:100E6000FFF764FF601CC4B2285D0028F4D1BDE820
:100E7000F08110B50446FFF7B9FE7820FFF788FE31
:100E80000020FFF785FE2046FFF782FEFFF7C8FE31
:100E900010BD10B50446FFF7A9FE7820FFF778FED5
:100EA0004020FFF775FE2046FFF772FEFFF7B8FE01
:100EB00010BD704729B1064AD2690243044BDA617A
:100EC00004E0034AD2698243014BDA6170470000B3
:100ED0000010024029B1064A92690243044B9A610C
:100EE00004E0034A92698243014B9A617047000013
:100EF00000100240704710B500F002F810BD00006D
:100F00000CB50020019000903348006840F4803018
:100F10003149086000BF3048006800F4003000909C
:100F20000198401C0190009818B90198B0F5A06F85
:100F3000F1D12948006800F4003010B10120009080
:100F400001E0002000900098012843D12348006868
:100F500040F01000214908600846006820F00300B6
:100F600008600846006840F0020008601A484068BF
:100F7000194948600846406848600846406840F49F
:100F8000806048600846406820F47C10486008464D
:100F9000406840F4E81048600846006840F08070FF
:100FA000086000BF0C48006800F000700028F9D00D
:100FB0000948406820F00300074948600846406837
:100FC00040F00200486000BF0348406800F00C0099
:100FD0000828F9D10CBD000000100240002002409A
:100FE0007047000010B51348006840F00100114937
:100FF000086008464068104908400E4948600846A5
:1010000000680E4908400B4908600846006820F453
:10101000802008600846406820F4FE0048604FF4D5
:101020001F008860FFF767FF4FF000600449086009
:1010300010BD0000001002400000FFF8FFFFF6FEA8
:1010400008ED00E010B50121880700F07BF80128C9
:1010500055D12B480068401C2949086008460068A3
:10106000B0F5FA7F09D3002008602648007808B957
:10107000012000E000202349087004212248FFF7E6
:1010800090FB20B101212048FFF78BFB68B91F4876
:101090000068401C1D49086008460068B0F5487F9C
:1010A00008D301201A49087004E00020174908609D
:1010B0001749087017480068401C16490860084620
:1010C0000068142803D300200860FFF7B7FB12481C
:1010D0000068401C1049086008460068B0F5FA7FB7
:1010E00009D3002008600D48007808B9012000E00D
:1010F00000200A4908700121880700F014F810BD8B
:1011000024000020170000200008014028000020D3
:10111000180000202C0000203000002019000020C2
:10112000CA4302827047CA430282704721B10288D3
:1011300042F00102028004E002884FF6FE731A407A
:101140000280704730B50246002000230024158A33
:1011500005EA0103958905EA010413B10CB10120E8
:1011600000E0002030BD1AB183890B43838102E087
:1011700083898B438381704701894FF6F872114050
:1011800001817047002202881D4B98420ED01D4BF2
:1011900098420BD0B0F1804F08D01B4B984205D03D
:1011A0001A4B984202D01A4B984204D14FF68F73D3
:1011B0001A404B881A43174B984207D0164B984257
:1011C00004D04FF6FF431A40CB881A4302808B8825
:1011D00083850B8803850A4B98420BD0094B9842B4
:1011E00008D00E4B984205D00D4B984202D00D4BC3
:1011F000984201D10B7A0386012383827047000055
:10120000002C014000340140000400400008004070
:10121000000C00400010004000140040004001405D
:1012200000440140004801401FB501210846FFF776
:1012300041FE4FF08040FFF79FFF0020ADF80A000D
:10124000ADF806000920ADF8080041F61F40ADF8E2
:10125000040000208DF80C0001A94FF08040FFF73A
:1012600091FF01218807FFF75BFF012211469007DC
:10127000FFF779FF4FF4A060FFF742FC1C208DF8C8
:10128000000001208DF8030002208DF801000120EC
:101290008DF802006846FFF7FBFB01218807FFF786
:1012A00045FF1FBD00BFFEE770B504460D4616465C
:1012B0002046FFF787F828B14AA201210846FFF728
:1012C000C4FD04E049A201210846FFF7BEFD6420E9
:1012D000FFF7B9F994F90220022303211846FFF71A
:1012E0005FFD44A205210220FFF7AFFD94F9032022
:1012F000012306210220FFF753FD3FA20721022010
:10130000FFF7A3FD94F90020022303210846FFF70D
:1013100047FD38A205210320FFF797FD94F901202E
:10132000012306210320FFF73BFD34A20721032000
:10133000FFF78BFD32480078002852D13078022820
:1013400008D12F48007808B9012000E000202C497E
:10135000087046E004222946002000F084F994F940
:10136000020095F90110884205DB94F9020095F915
:101370000010884214DDFFF7BDFA6420FFF763F91F
:10138000FFF7B8FA6420FFF75EF9FFF7B3FA6420BD
:10139000FFF759F9FFF7AEFA4FF42F70FFF753F943
:1013A00094F9000095F90310884205DB94F90000D8
:1013B00095F90210884214DDFFF7B2FA6420FFF7B6
:1013C00042F9FFF7ADFA6420FFF73DF9FFF7A8FAFD
:1013D0006420FFF738F9FFF7A3FA4FF42F70FFF7F7
:1013E00032F970BD4572726F7200000057656C6310
:1013F0006F6D65002E00000021430000255248005B
:10140000040000202DE9F04104460F4615461E4613
:10141000DDF8188075A201210846FFF716FD75A2B8
:1014200001210320FFF711FD73A209210320FFF71B
:101430000CFD72A201210220FFF707FD70A2092115
:101440000220FFF702FD94F9002002230421184630
:10145000FFF7C8FC94F90120022304210320FFF7C1
:10146000C1FC94F9022002230C211846FFF7BAFCB4
:1014700094F9032002230C210320FFF7B3FC3878F2
:1014800002280AD12878401C28702878C11700EB60
:1014900091718910A0EB810129703878032807D059
:1014A00004215848FFF77DF940BB98F8000028B3A5
:1014B0002878205C401C40B22978605494F90000E0
:1014C000502801DD5020207094F90200632801DDCE
:1014D0006320A07094F9010094F90010884203DBA6
:1014E0006078401E40B2607094F9030094F90210D5
:1014F000884203DBE078401E40B2E0703878042870
:1015000007D001213F48FFF74CF948BB98F800008D
:1015100030B32878205C401E40B22978605494F99A
:10152000010010F1280F01DAD820607094F903004F
:10153000002801DA0020E07094F9000094F901100D
:10154000884203DC2078401C40B2207094F90200ED
:1015500094F90310884203DCA078401C40B2A070CC
:10156000287840B93078012805D127A20721022028
:10157000FFF76BFC04E025A207210220FFF765FCC2
:101580002878012808D13078012805D11EA207212A
:101590000320FFF75AFC04E01CA207210320FFF7F9
:1015A00054FC2878022808D13078012805D116A2E9
:1015B0000F210220FFF749FC04E014A20F210220B2
:1015C000FFF743FC2878032808D13078012805D19B
:1015D0000DA20F210320FFF738FC04E00BA20F211E
:1015E0000320FFF732FCBDE8F081000053657474FE
:1015F000696E6700285F3A00295F3A00285E3A006A
:10160000295E3A00000801403C0000002020000054
:1016100010B5FFF7B9F910BD2DE9F04104460E46AB
:101620001746002500F074F8FFF7E2F90220FFF7F3
:10163000E9F9C4F30740FFF7E5F9C4F30720FFF722
:10164000E1F9E0B2FFF7DEF900BF04E0705DFFF7FB
:10165000D9F9681C85B2BD42F8DBFFF7CEF900F07E
:101660003FF8BDE8F0812DE9F04104460E461746EB
:101670000025FFF7BDF90320FFF7C4F9C4F30740C5
:10168000FFF7C0F9C4F30720FFF7BCF9E0B2FFF79A
:10169000B9F900BF05E0FF20FFF7B4F940B270557B
:1016A0006D1CBD42F7D3FFF7A8F9BDE8F08110B576
:1016B000044600F02DF8FFF79BF92020FFF7A2F970
:1016C000C4F30740FFF79EF9C4F30720FFF79AF928
:1016D000E0B2FFF797F9FFF790F900F001F810BDBD
:1016E00010B50A4CFFF784F90520FFF78BF902E0EB
:1016F000641E04B906E0FF20FFF784F900F0010042
:101700000028F5D100BFFFF778F910BDA0860100D1
:1017100010B5FFF76DF90620FFF774F9FFF76DF9C3
:1017200010BD000008B5FFF759F8042263490020F6
:10173000FFF799FF042262499002FFF794FF5F4888
:1017400090F9000050281FDC5C4890F9010010F16E
:10175000280F19DB594890F90200642814DC574817
:1017600090F9030000280FDB544890F90100534919
:1017700091F90010884207DC504890F903004F4966
:1017800091F90210884208DD05204C4948701E205E
:1017900008701420C870502088704AA201210220CD
:1017A000FFF753FB48A201210320FFF74EFB84E023
:1017B000FFF780F8454908700846007801284FD1A6
:1017C00043480078401C42490870084600780321CD
:1017D00090FBF1F201FB12003D49087008460078C9
:1017E00060B9FFF797F937A201210220FFF72DFB1F
:1017F00035A201210320FFF728FB31E034480078AF
:10180000012807D1FFF786F904222C490020FFF7B1
:101810002AFF25E02E480078022821D10020FFF77A
:1018200046FF042225490020FFF7F6FE29A20121E8
:101830000420FFF70AFB40F2E240FEF704FFFFF747
:1018400069F926A201210846FFF7FFFA002028497E
:1018500008804FF48050274908600020264908700E
:101860001B48007820B101280CD002281CD112E0BE
:10187000164A12491248FFF717FD20491048FEF793
:10188000E9FD19E01E481F4B1F4A104900900B4804
:10189000FFF7B8FD10E01848164B154A184900909C
:1018A0000A48FEF70FFE07E0FFF734F917A20121FF
:1018B0000846FFF7CAFA00BF00BF79E71000002012
:1018C0000C000020283A0000293A000014000020F3
:1018D00015000020534554204F4B000044617461B3
:1018E00020202020202020312F3638320000000018
:1018F0001A0000201C0000202000002019000020F9
:101900001800002017000020160000204552524FFA
:101910005200000000000000000000000000000075
:1019200000000000000000000C12120C000000007B
:1019300000000000000000FCA80000000030484744
:101940004830000040C07840C0784000043F0404A4
:101950003F040400007088FC08300000001820FFDD
:10196000211E0000F008F000E018000000211C0318
:101970001E211E0000F00888700000001E21232494
:101980001927211010160E000000000000000000B2
:10199000000000000000FE01FE0000001826494083
:1019A0004126180000E0100E30C000000718332058
:1019B00030180F00404080F0804040000202010FCC
:1019C00001020200000000F0000000000101011F00
:1019D00001010100000000000000000080B0700064
:1019E00000000000000000000000000000010101F4
:1019F0000101010100000000000000000030300083
:101A0000000000000000000080601804006018065C
:101A10000100000000E010080810E000000F102096
:101A200020100F00001010F8000000000020203FE0
:101A3000202000000070080808887000003028246A
:101A4000222130000030088888483000001820200B
:101A500020110E000000C02010F800000007042430
:101A6000243F240000F80888880808000019212075
:101A700020110E0000E0108888180000000F1120CF
:101A800020110E0000380808C83808000000003F88
:101A9000000000000070880808887000001C2221E7
:101AA00021221C0000E010080810E0000000312294
:101AB00022110F000000006060000000000000061E
:101AC00006000000000000800000000000008060B0
:101AD0000000000080C060301000000003070D19F6
:101AE0001101010140404040404040000404040412
:101AF00004040400000810204080000000201008AA
:101B000004020100007048080808F00000000030DE
:101B100036010000C030C828E810E000071827246C
:101B200023140B000000C038E0000000203C23021A
:101B30000227382008F8888888700000203F20207D
:101B400020110E00C03008080808380007182020AF
:101B50002010080008F808080810E000203F2020A6
:101B600020100F0008F88888E8081000203F202087
:101B70002320180008F88888E8081000203F20007B
:101B800003000000C03008080838000007182020B3
:101B9000221E020008F808000008F808203F210172
:101BA00001213F20000808F8080800000020203F1D
:101BB0002020000000000808F8080800C08080808D
:101BC0007F00000008F888C028180800203F200186
:101BD0002638200008F8080000000000203F2020E0
:101BE0002020300008F8F800F8F80800203F003FF7
:101BF000003F200008F830C00008F808203F20000F
:101C000007183F00E01008080810E0000F1020201F
:101C100020100F0008F808080808F000203F2101F4
:101C200001010000E01008080810E0000F1824244B
:101C300038504F0008F8888888887000203F2000BE
:101C4000030C302000708808080838000038202174
:101C500021221C00180808F8080818000000203F7E
:101C60002000000008F808000008F808001F2020E5
:101C700020201F000878880000C8380800000738B6
:101C80000E010000F80800F80008F800033C070007
:101C9000073C0300081868808068180820302C036F
:101CA000032C30200838C800C83808000000203F46
:101CB0002000000010080808C83808002038262135
:101CC00020201800000000FE020202000000007F39
:101CD00040404000000C30C0000000000000000147
:101CE0000638C00000020202FE0000000040404032
:101CF0007F000000C06030F8F83060C00000003F96
:101D00003F000000000000F8F8000000060C183F3B
:101D10003F180C0600020204000000000000000052
:101D20000000000000008080808000000019242254
:101D300022223F2008F8008080000000003F112090
:101D400020110E000000008080800000000E112095
:101D500020201100000000808088F800000E112073
:101D600020103F200000808080800000001F222281
:101D700022221300008080F0888888180020203FED
:101D8000202000000000808080808000006B949400
:101D90009493600008F8008080800000203F2100BC
:101DA00000203F2000809898000000000020203F85
:101DB00020200000000000809898000000C0808073
:101DC000807F000008F8000080808000203F24020F
:101DD0002D302000000808F8000000000020203FFF
:101DE000202000008080808080808000203F2000B4
:101DF0003F20003F8080008080800000203F210045
:101E000000203F200000808080800000001F2020F4
:101E100020201F00808000808000000080FFA12023
:101E200020110E000000008080808000000E112034
:101E300020A0FF80808080008080800020203F21C3
:101E40002000010000008080808080000033242476
:101E500024241900008080E0808000000000001F22
:101E6000202000008080000000808000001F2020D3
:101E700020103F20808080000080808000010E3094
:101E80000806010080800080008080800F300C03F5
:101E90000C300F0000808000808080000020312EF8
:101EA0000E312000808080000080808080818E70D4
:101EB0001806010000808080808080000021302C86
:101EC0002221300000000000807C0202000000009F
:101ED000003F404000000000FF0000000000000044
:101EE000FF0000000002027C800000000040403F34
:101EF00000000000000201020204020000000000D5
:101F000000000000241F0008000000203400000032
:101F100028010008581F0008340000206406000053
:101F2000440100080000000000000008001000004C
:101F300000000000000000000000000000000000A1
:101F40000010000000000000000000000000000081
:081F5000000000000000000089
:04000005080000ED02
:00000001FF
