:020000040800F2
:1000000070060020890100089D08000811060008FC
:100010009507000843020008AD0D0008000000002D
:100020000000000000000000000000005D0C00085F
:100030007D040008000000003B0C0008490D00088A
:10004000A3010008A3010008A3010008A301000800
:10005000A3010008A3010008A3010008A3010008F0
:10006000A3010008A3010008A3010008A3010008E0
:10007000A3010008A3010008A3010008A3010008D0
:10008000A3010008A3010008A3010008A3010008C0
:10009000A3010008A3010008A3010008A3010008B0
:1000A000A3010008A3010008A3010008A3010008A0
:1000B000A3010008A3010008A3010008A301000890
:1000C000A3010008A3010008A3010008A301000880
:1000D000A3010008A3010008A3010008A301000870
:1000E000A3010008A3010008A301000800F002F822
:1000F00000F03AF80AA090E8000C82448344AAF188
:100100000107DA4501D100F02FF8AFF2090EBAE885
:100110000F0013F0010F18BFFB1A43F0010318473B
:100120003018000050180000103A24BF78C878C179
:10013000FAD8520724BF30C830C144BF04680C60ED
:10014000704700000023002400250026103A28BF35
:1001500078C1FBD8520728BF30C148BF0B60704739
:100160001FB51FBD10B510BD00F031F81146FFF7E7
:10017000F7FF01F04DF800F04FF803B4FFF7F2FF7E
:1001800003BC00F057F800000948804709480047C1
:10019000FEE7FEE7FEE7FEE7FEE7FEE7FEE7FEE737
:1001A000FEE7FEE704480549054A064B7047000094
:1001B0004D0D0008ED0000087000002070060020C2
:1001C000700200207002002070477047704775462B
:1001D00000F02CF8AE4605006946534620F00700B3
:1001E000854618B020B5FFF7DDFFBDE820404FF091
:1001F00000064FF000074FF000084FF0000B21F011
:100200000701AC46ACE8C009ACE8C009ACE8C009DD
:10021000ACE8C0098D46704710B50446AFF30080C6
:100220002046BDE81040FFF7A8BF00000048704717
:100230001000002001491820ABBEFEE72600020096
:10024000704700BFFEE7000008B50121082000F05C
:10025000F5FC10208DF803000002ADF8000003202B
:100260008DF802006946044800F02CF94FF48051E3
:10027000014800F0C6F908BD000C014010B54FF46C
:100280008051084800F0B2F928B94FF48051054870
:1002900000F0B7F904E04FF48051024800F0AFF9E4
:1002A00010BD0000000C014010B50024002000F03B
:1002B00045F804E0601CC4B2012000F0ECF84FF4F3
:1002C00000510F4800F089F908B1642CF2DB642C6E
:1002D00001DB012010BD002404E0601CC4B2012039
:1002E00000F0D9F84FF40051054800F076F908B94C
:1002F000642CF2DB642C01DB0120EBE70020E9E752
:10030000000C014008B50121082000F097FC4FF4D3
:100310000050ADF8000010208DF8030003208DF888
:1003200002006946044800F0CDF84FF4005102483D
:1003300000F067F908BD0000000C014038B5044624
:1003400054B14FF40050ADF8000003208DF80200C6
:1003500010208DF8030006E04FF40050ADF80000C7
:1003600004208DF803006946014800F0ABF838BD61
:10037000000C014010B5002404E0601CC4B2012050
:1003800000F089F84FF40051104800F026F908B148
:10039000642CF2DB002404E0601CC4B2012000F0F5
:1003A0007AF84FF40051094800F017F908B9642CA5
:1003B000F2DB232000F06FF84FF40051034800F007
:1003C0000CF908B1012010BD0020FCE7000C014031
:1003D00070B50025002407E0FFF7CCFF10B18020A6
:1003E00020410543601CC4B2082CF5DB284670BDD3
:1003F0007CB5054600F02AF8FFF756FF10BB002435
:1004000005E0FFF7E5FF0DF80400601CC4B2052C01
:10041000F7DB9DF800009DF8011008449DF80210DC
:1004200008449DF8031008449DF8041088420BD13D
:10043000002404E01DF804002855601CC4B2052CFB
:10044000F8DB01E001207CBD0020FCE710B50120B5
:10045000FFF774FF4FF40051074800F0D0F8122066
:1004600000F00DF84FF40051034800F0CAF81420D2
:1004700000F011F810BD0000000C0140704700B5FD
:10048000034603E04FF47A7000F005F8181EA3F15C
:100490000103F7D100BD00EBC001C9004FF0E0221D
:1004A0005161002191610521116100BF4FF0E021F0
:1004B000096901F480310029F8D004214FF0E022CD
:1004C000116170472DE9F041024600250026002009
:1004D00000230024002791F803C00CF00F0591F8C9
:1004E00003C00CF0100CBCF1000F03D091F802C057
:1004F0004CEA050591F800C0BCF1000F31D014683A
:1005000000202BE04FF0010C0CFA00F3B1F800C012
:100510000CEA03069E4220D183004FF00F0C0CFA28
:1005200003F7BC4305FA03FC4CEA040491F803C04A
:10053000BCF1280F06D14FF0010C0CFA00FCC2F8F8
:1005400014C00AE091F803C0BCF1480F05D14FF088
:10055000010C0CFA00FCC2F810C0401C0828D1D3D2
:100560001460B1F800C0BCF1FF0F34DD5468002006
:100570002EE000F1080C4FF0010808FA0CF3B1F876
:1005800000C00CEA03069E4221D183004FF00F0CFD
:100590000CFA03F7BC4305FA03FC4CEA040491F897
:1005A00003C0BCF1280F05D100F1080C08FA0CF8C3
:1005B000C2F8148091F803C0BCF1480F07D100F1D4
:1005C000080C4FF0010808FA0CF8C2F81080401C23
:1005D0000828CED35460BDE8F0810246002093681D
:1005E0000B400BB1012000E00020704702460020C4
:1005F000D3680B400BB1012000E00020704741613F
:100600007047016170470AB1016100E041617047C4
:1006100000BFFEE710B500F0DBF900F06FFD00F061
:100620005BF800F09BF8FFF76DFEFFF70DFE00F0A2
:1006300095F810BD10B5002440212648FFF7CDFFE6
:1006400068B91420FFF71BFF00BF40212148FFF7C6
:10065000C4FF0028F9D01420FFF711FF0124102156
:100660001C48FFF7BAFF68B91420FFF708FF00BF66
:1006700010211848FFF7B1FF0028F9D01420FFF728
:10068000FEFE022404211348FFF7A7FF68B91420D7
:10069000FFF7F5FE00BF04210E48FFF79EFF00287C
:1006A000F9D01420FFF7EBFE032401210948FFF7DE
:1006B00094FF68B91420FFF7E2FE00BF012105484E
:1006C000FFF78BFF0028F9D01420FFF7D8FE042491
:1006D000204610BD0008014008B50121042000F0AB
:1006E000ADFA48208DF803005520ADF80000032036
:1006F0008DF8020069460248FFF7E4FE08BD0000DD
:100700000008014010B54FF480410848FFF76EFF24
:1007100028B94FF480410548FFF773FF04E04FF418
:1007200080410248FFF76BFF10BD0000000C014044
:1007300010B54FF400410848FFF758FF28B94FF4AF
:1007400000410548FFF75DFF04E04FF40041024817
:10075000FFF755FF10BD0000000C014008B5012156
:10076000082000F06BFA10208DF803004FF4404091
:10077000ADF8000003208DF8020069460448FFF739
:10078000A1FE4FF440410248FFF73BFF08BD0000C7
:10079000000C014000BFFEE708B50121042000F075
:1007A0004DFA10208DF803004FF49850ADF800007A
:1007B00003208DF8020069460B48FFF783FE4820AE
:1007C0008DF803004FF40060ADF8000003208DF8B1
:1007D000020069460448FFF775FE012000F052F858
:1007E000002000F043F808BD0008014010B54FF4A8
:1007F00000610248FFF7F1FE10BD00000008014053
:1008000010B5002000F03EF810BD10B5012000F03A
:1008100039F810BD70B505460026002400BF14E06D
:100820008021214101EA050000F014F8012000F0C8
:100830001DF8FFF7DBFF012802D18020204106438D
:10084000002000F013F8601CC4B2082CE8DB30462E
:1008500070BD000010B5044622464FF48071024876
:10086000FFF7D1FE10BD00000008014010B504469E
:1008700022464FF400710248FFF7C5FE10BD00008C
:100880000008014010B5044622464FF4805102484A
:10089000FFF7B9FE10BD000000080140704770B5B9
:1008A00000240EE00021204600F0F3F8002504E0CB
:1008B000002000F0B2F9681CC5B2802DF8DB601C86
:1008C000C4B2082CEEDB70BD08B50121082000F091
:1008D000B5F914208DF8030003208DF802004FF4C1
:1008E0008070ADF8000069460A48FFF7EBFD4FF451
:1008F0000070ADF8000069460648FFF7E3FD0122ED
:1009000011020448FFF77FFE012251020148FFF760
:100910007AFE08BD000C014070B50546002419E0C0
:1009200080202041284008B1012000E0002002463C
:100930004FF400710E48FFF766FE012211020C48C9
:10094000FFF761FE00224FF480710948FFF75BFE5C
:10095000601CC4B2082CE3DB012211020448FFF73B
:1009600052FE00224FF480710148FFF74CFE70BD2B
:10097000000C014010B5012251020A48FFF743FE66
:10098000012211020748FFF73EFE00224FF40071DA
:100990000448FFF738FE00224FF480710148FFF74A
:1009A00032FE10BD000C014010B500224FF4007162
:1009B0000648FFF728FE012211020448FFF723FE34
:1009C000012251020148FFF71EFE10BD000C01403C
:1009D00070B5002406E0002500E06D1CB5F57A7FB7
:1009E000FBD3641CB4F57A7FF5D3FFF76DFFAE201F
:1009F00000F003F9D52000F000F9802000F0FDF8A8
:100A0000A82000F0FAF83F2000F0F7F8D32000F01B
:100A1000F4F8002000F0F1F8402000F0EEF8A120FA
:100A200000F0EBF8C82000F0E8F8DA2000F0E5F874
:100A3000122000F0E2F8812000F0DFF8CF2000F073
:100A4000DCF8D92000F0D9F8F12000F0D6F8DB204E
:100A500000F0D3F8302000F0D0F8A42000F0CDF85A
:100A6000A62000F0CAF88D2000F0C7F8142000F08E
:100A7000C4F8AF2000F0C1F8FFF711FF70BD10B54A
:100A80000246012000E050430B1EA1F10101FAD102
:100A900010BD70B505460C4645F0B00000F0ADF84D
:100AA000102141EA141000F0A8F804F00F0000F043
:100AB000A4F870BD2DE9F04105460E461746721E9A
:100AC000D206110E6A1E5206100EFFF7E2FF002436
:100AD00009E0A7F12001134A02EB0111085D00F0C3
:100AE0009CF8601CC4B2082CF3DB721ED206110EF7
:100AF0006A1E012303EB4202D0B2FFF7CAFF0024B3
:100B00000BE0A7F12001074A02EB011204F10801F2
:100B1000505C00F082F8601CC4B2082CF1DBBDE828
:100B2000F0810000601300082DE9F04780460E4672
:100B300017461D46002415E0281B411E0A20FFF71A
:100B40009EFFB7FBF0F00A21B0FBF1F201FB1200AF
:100B500000F130093019C1B24A464046FFF7AAFFFA
:100B6000601CC4B2AC42E7DBBDE8F0872DE9F0477A
:100B70008146884615461E46002D06DB202241464A
:100B80004846FFF797FF2F4605E02D22414648468D
:100B9000FFF790FF6F42002417E0301B411E0A2030
:100BA000FFF76DFFB7FBF0F00A21B0FBF1F201FB9C
:100BB000120000F1300A08EB0400401CC1B252469A
:100BC0004846FFF777FF601CC4B2B442E5DBBDE8DE
:100BD000F0872DE9F04107460E461546002407E050
:100BE0002A5D3019C1B23846FFF764FF601CC4B2F9
:100BF000285D0028F4D1BDE8F08110B50446FFF768
:100C0000B9FE7820FFF788FE0020FFF785FE20461A
:100C1000FFF782FEFFF7C8FE10BD10B50446FFF7D0
:100C2000A9FE7820FFF778FE4020FFF775FE2046EA
:100C3000FFF772FEFFF7B8FE10BD704729B1064AF4
:100C400092690243044B9A6104E0034A9269824329
:100C5000014B9A617047000000100240704710B5C8
:100C600000F002F810BD00000CB5002001900090CB
:100C70003348006840F480303149086000BF304894
:100C8000006800F4003000900198401C019000982A
:100C900018B90198B0F5A06FF1D12948006800F4A7
:100CA000003010B10120009001E000200090009879
:100CB000012843D12348006840F010002149086012
:100CC0000846006820F0030008600846006840F00D
:100CD000020008601A4840681949486008464068A0
:100CE00048600846406840F48060486008464068B4
:100CF00020F47C1048600846406840F4E8104860E2
:100D00000846006840F08070086000BF0C4800682A
:100D100000F000700028F9D00948406820F0030076
:100D2000074948600846406840F00200486000BF3C
:100D30000348406800F00C000828F9D10CBD000001
:100D400000100240002002407047000010B5134818
:100D5000006840F0010011490860084640681049E9
:100D600008400E494860084600680E4908400B4993
:100D700008600846006820F4802008600846406843
:100D800020F4FE0048604FF41F008860FFF767FF03
:100D90004FF000600449086010BD000000100240E0
:100DA0000000FFF8FFFFF6FE08ED00E000BFFEE7E1
:100DB00070B504460D4616462046FFF719FB28B1CC
:100DC00049A201210846FFF704FF04E048A20121DF
:100DD0000846FFF7FEFE6420FFF751FBA2780223CE
:100DE00004211846FFF7A0FE43A206210220FFF7C8
:100DF000F0FEE278012307210220FFF795FE3FA2D3
:100E000008210220FFF7E5FE2278022304210320B7
:100E1000FFF78AFE38A206210320FFF7DAFE627888
:100E2000012307210320FFF77FFE354800780028C3
:100E300059D13078022808D13148007808B901200A
:100E400000E000202E4908704DE0207895F9001050
:100E5000884204DB207895F9011088421CDDFFF7F9
:100E60000DFAFFF74FFC6420FFF709FBFFF706FAC6
:100E7000FFF748FC6420FFF702FBFFF7FFF9FFF7DD
:100E800041FC6420FFF7FBFAFFF7F8F9FFF73AFCA3
:100E90004FF42F70FFF7F3FAA07895F9001088420D
:100EA00004DBA07895F9011088421CDDFFF7E6F914
:100EB000FFF73EFC6420FFF7E2FAFFF7DFF9FFF7E8
:100EC00037FC6420FFF7DBFAFFF7D8F9FFF730FCB7
:100ED0006420FFF7D4FAFFF7D1F9FFF729FC4FF4AC
:100EE0002F70FFF7CCFA70BD4572726F7200000070
:100EF00057656C636F6D65002E0000002A4300008B
:100F00000000002070B504460E46154674A201216B
:100F10000846FFF75EFE74A201210220FFF759FE8A
:100F200072A209210220FFF754FE71A201210320C1
:100F3000FFF74FFE6FA209210320FFF74AFE94F945
:100F40000020022304211846FFF710FE94F9012027
:100F5000022304210320FFF709FE94F90220022353
:100F60000C211846FFF702FEE078642807D194F9B7
:100F7000032003230C211846FFF7F8FD06E094F93F
:100F8000032002230C210320FFF7F0FD3078022814
:100F90000AD12878401C28702878C11700EB91717D
:100FA0008910A0EB810129703078032825D1287899
:100FB000205C401C40B22978605494F9010050280C
:100FC00001DD5020607094F90300642801DD642085
:100FD000E07094F9000094F90110884203DB207856
:100FE000401E40B2207094F9020094F90310884228
:100FF00003DBA078401E40B2A0703078042826D1D0
:101000002878205C401E40B22978605494F9000092
:1010100010F1280F01DAD820607094F9020000283E
:1010200001DA0020E07094F9010094F90010884280
:1010300003DC6078401C40B2607094F9030094F9BE
:101040000210884203DCE078401C40B2E07028784F
:1010500028B929A204210220FFF7BBFD06E094F97C
:101060000020022304211846FFF780FD287801287C
:1010700005D121A204210320FFF7ABFD06E094F97E
:101080000120022304210320FFF770FD28780228A5
:1010900004D119A20C21FFF79CFD06E094F902206F
:1010A00002230C211846FFF761FD2878032804D19C
:1010B00011A20C21FFF78DFD11E0E078642807D123
:1010C00094F9032003230C211846FFF74FFD06E097
:1010D00094F9032002230C210320FFF747FD70BD84
:1010E00053657474696E6700544C3A00484C3A007A
:1010F00054483A0048483A002020200010B5FFF735
:101100004BFB10BD2DE9F04104460E461746002565
:1011100000F074F8FFF774FB0220FFF77BFBC4F3C9
:101120000740FFF777FBC4F30720FFF773FBE0B23C
:10113000FFF770FB00BF04E0705DFFF76BFB681CFE
:1011400085B2BD42F8DBFFF760FB00F03FF8BDE879
:10115000F0812DE9F04104460E4617460025FFF7C1
:101160004FFB0320FFF756FBC4F30740FFF752FB8A
:10117000C4F30720FFF74EFBE0B2FFF74BFB00BFC5
:1011800005E0FF20FFF746FB40B270556D1CBD42E5
:10119000F7D3FFF73AFBBDE8F08110B5044600F045
:1011A0002DF8FFF72DFB2020FFF734FBC4F3074099
:1011B000FFF730FBC4F30720FFF72CFBE0B2FFF78B
:1011C00029FBFFF722FB00F001F810BD10B50A4C17
:1011D000FFF716FB0520FFF71DFB02E0641E04B9B4
:1011E00006E0FF20FFF716FB00F001000028F5D114
:1011F00000BFFFF70AFB10BDA086010010B5FFF786
:10120000FFFA0620FFF706FBFFF7FFFA10BD00000C
:10121000FFF700FA042247490020FFF79AFF4548EC
:1012200090F9010050281FDC424890F9000010F1AD
:10123000280F19DB3F4890F90300642814DC3D486F
:1012400090F9020000280FDB3A4890F90000394974
:1012500091F90110884207DC364890F902003549BF
:1012600091F90310884208DD0520324908701E20DC
:101270004870142088705020C8702FA201210220CD
:10128000FFF7A7FC2DA201210320FFF7A2FC50E0ED
:10129000FFF7D0F92C49087008460078012834D1AE
:1012A0002A48007868B90120284908700020284998
:1012B0000870FFF7F4FA04221E490020FFF749FFE7
:1012C00023E02248007801281FD10020FFF765FFA6
:1012D000042218490020FFF715FF1EA20121042057
:1012E000FFF777FC40F2DC50FFF7C9F80020174900
:1012F0000870FFF7D4FA10A201210220FFF769FC61
:101300000EA201210320FFF764FC1048007810B101
:1013100001280CD105E00C4A06491048FFF748FDAA
:1013200006E00B4A08490348FFF7ECFD00E000BF68
:1013300000BFADE705000020543A0000483A2020E5
:101340002020202500000000090000200A000020C5
:101350000B000020534554204F4B0000010000209B
:10136000000000000000000000000000000000007D
:10137000000000F800000000000000333000000012
:1013800000100C06100C0600000000000000000019
:1013900040C07840C0784000043F04043F0404008B
:1013A000007088FC08300000001820FF211E00009B
:1013B000F008F000E018000000211C031E211E00B0
:1013C00000F00888700000001E2123241927211036
:1013D00010160E00000000000000000000000000D9
:1013E000000000E018040200000000071820400080
:1013F00000020418E0000000004020180700000070
:10140000404080F0804040000202010F01020200D3
:10141000000000F0000000000101011F01010100B7
:10142000000000000000000080B07000000000001C
:1014300000000000000000000001010101010101A5
:10144000000000000000000000303000000000003C
:101450000000000080601804006018060100000011
:1014600000E010080810E000000F102020100F000E
:10147000001010F8000000000020203F2020000095
:1014800000700808088870000030282422213000ED
:1014900000300888884830000018202020110E00F5
:1014A0000000C02010F8000000070424243F24009E
:1014B00000F80888880808000019212020110E0073
:1014C00000E0108888180000000F112020110E0085
:1014D00000380808C83808000000003F000000007D
:1014E0000070880808887000001C222121221C003E
:1014F00000E010080810E0000000312222110F0067
:10150000000000C0C00000000000003030000000FB
:10151000000000800000000000008060000000006B
:101520000000804020100800000102040810200084
:1015300040404040404040000404040404040400CF
:101540000008102040800000002010080402010064
:10155000007048080808F000000000303601000064
:10156000C030C828E810E0000718272423140B0017
:101570000000C038E0000000203C23020227382091
:1015800008F8888888700000203F202020110E0075
:10159000C03008080808380007182020201008006C
:1015A00008F808080810E000203F202020100F0055
:1015B00008F88888E8081000203F20202320180021
:1015C00008F88888E8081000203F20000300000089
:1015D000C03008080838000007182020221E02002A
:1015E00008F808000008F808203F210101213F20E9
:1015F000000808F8080800000020203F2020000014
:1016000000000808F8080800C08080807F00000003
:1016100008F888C028180800203F2001263820003C
:1016200008F8080000000000203F202020203000A3
:1016300008F8F800F8F80800203F003F003F2000BD
:1016400008F830C00008F808203F200007183F00C5
:10165000E01008080810E0000F10202020100F00F4
:1016600008F808080808F000203F210101010000E7
:10167000E01008080810E0000F18242438504F002C
:1016800008F8888888887000203F2000030C3020EC
:1016900000708808080838000038202121221C002A
:1016A000180808F8080818000000203F2000000073
:1016B00008F808000008F808001F202020201F005C
:1016C0000878880000C83808000007380E010000BC
:1016D000F80800F80008F800033C0700073C030086
:1016E000081868808068180820302C03032C3020EC
:1016F0000838C800C83808000000203F200000005B
:1017000010080808C83808002038262120201800B2
:10171000000000FE020202000000007F4040400086
:10172000000C30C000000000000000010638C000BE
:1017300000020202FE000000004040407F00000066
:10174000000004020202040000000000000000008B
:101750000000000000000000808080808080808089
:101760000002020400000000000000000000000071
:1017700000008080808000000019242222223F2067
:1017800008F8008080000000003F112020110E00AA
:101790000000008080800000000E11202020110039
:1017A000000000808088F800000E112020103F20EB
:1017B0000000808080800000001F2222222213006F
:1017C000008080F0888888180020203F20200000BA
:1017D0000000808080808000006B9494949360006F
:1017E00008F8008080800000203F210000203F207A
:1017F00000809898000000000020203F202000007A
:10180000000000809898000000C08080807F000069
:1018100008F8000080808000203F24022D30200046
:10182000000808F8000000000020203F20200000F1
:101830008080808080808000203F20003F20003F0B
:101840008080008080800000203F210000203F2019
:101850000000808080800000001F202020201F00CA
:10186000808000808000000080FFA12020110E00F9
:101870000000008080808000000E112020A0FF80EA
:10188000808080008080800020203F212000010097
:1018900000008080808080000033242424241900EC
:1018A000008080E0808000000000001F20200000F9
:1018B0008080000000808000001F202020103F203A
:1018C000808080000080808000010E3008060100CA
:1018D00080800080008080800F300C030C300F006F
:1018E00000808000808080000020312E0E3120009A
:1018F000808080000080808080818E7018060100CA
:1019000000808080808080000021302C22213000E7
:1019100000000000807C020200000000003F404008
:1019200000000000FF00000000000000FF000000B9
:101930000002027C800000000040403F00000000E8
:101940000006010102020404000000000000000083
:101950007019000800000020100000002801000895
:1019600080190008100000206006000044010008F3
:101970000000000000000000000000000000000067
:04000005080000ED02
:00000001FF
