:020000040800F2
:10000000D006002089010008A50F0008E10B0008B8
:10001000910D0008A105000811190008000000005A
:10002000000000000000000000000000591500085A
:100030004D0A000800000000D9130008451600080A
:10004000A3010008A3010008A3010008A301000800
:10005000A3010008A3010008A3010008A3010008F0
:10006000A3010008A3010008A3010008A3010008E0
:10007000A3010008A3010008A3010008A3010008D0
:10008000A3010008A3010008A3010008A3010008C0
:10009000A3010008A3010008A3010008A3010008B0
:1000A000A3010008A3010008A3010008A3010008A0
:1000B000A9160008A3010008A3010008A301000875
:1000C000A3010008A3010008A3010008A301000880
:1000D000A3010008A3010008A3010008A301000870
:1000E000A3010008A3010008A301000800F002F822
:1000F00000F03AF80AA090E8000C82448344AAF188
:100100000107DA4501D100F02FF8AFF2090EBAE885
:100110000F0013F0010F18BFFB1A43F0010318473B
:10012000D0240000F0240000103A24BF78C878C121
:10013000FAD8520724BF30C830C144BF04680C60ED
:10014000704700000023002400250026103A28BF35
:1001500078C1FBD8520728BF30C148BF0B60704739
:100160001FB51FBD10B510BD00F0C3F91146FFF754
:10017000F7FF01F029FE00F0E1F903B4FFF7F2FF09
:1001800003BC00F0E9F9000009488047094800472E
:10019000FEE7FEE7FEE7FEE7FEE7FEE7FEE7FEE737
:1001A000FEE7FEE704480549054A064B7047000094
:1001B00049160008ED000008D0000020D0060020FD
:1001C000D0020020D002002010B5203AC0F00B80F1
:1001D000B1E81850203AA0E81850B1E81850A0E84B
:1001E0001850BFF4F5AF5FEA027C24BFB1E81850A5
:1001F000A0E8185044BF18C918C0BDE810405FEA15
:10020000827C24BF51F8043B40F8043B08BF704790
:10021000D20728BF31F8023B48BF11F8012B28BF95
:1002200020F8023B48BF00F8012B7047014900F05D
:10023000DDB800004000002010B503681C1404EB7A
:1002400021449BB289B2194494FBF2F302FB13439D
:1002500094FBF2F401EB034393FBF2F102FB113147
:1002600093FBF2F301E05B1E11440029FBDB01600C
:1002700003EB044010BDF0B504464FF0FF3585B0E8
:100280000068049060680290A0680390E0680190A4
:1002900020690090666906F18040B0F1004F7CD87B
:1002A0003C22002104A8FFF7C7FF3C22014602A818
:1002B000FFF7C2FF1822014603A8FFF7BDFF411E4A
:1002C00040F2B55201A8FFF7B7FF0C220746684677
:1002D0000021FFF7B1FF414B00EB870030440026BF
:1002E0007B4411E0511A01910099491C02290091A7
:1002F00002D00C2908D105E0810705D00199491CDD
:10030000019101E0401C00960099019A595C9142CC
:10031000E8DD0099012906D11C2A04D1810702D009
:100320000221CDE90016A0F146018B293CD2DDE97E
:100330000061002202E09F5C521C3944B242FADBA9
:10034000012E02DD820700D0491E40F2B55340F273
:100350006D16C21700EB927292105A4300F003031D
:1003600003FB062283070A4400D1521E039E02EBC0
:100370004203049F06EBC303029EC3EB031306EB89
:100380008303174E33441E149BB2C6EB0616C3EB11
:100390000313B60007EB830300E005E006EB13460A
:1003A00066F31F43360C02D0284605B0F0BD80C46A
:1003B000029E40C4039E40C4019E761C44F80C6B10
:1003C000009E44E902600720521C92FBF0F600FBFD
:1003D000162084E823001846E7E700000023000009
:1003E000A039CEFD704770477047000070B50C46CD
:1003F000016800204A1C3ED03C22B1FBF2F302FB14
:100400001313B1FBF2F12360B1FBF2F302FB131300
:10041000B1FBF2F118226360B1FBF2F302FB13139C
:10042000B1FBF2F146F2E0320A440721A360B2FBCD
:10043000F1F301FB132140F2B553B2FBF3F5A161D7
:10044000B2FBF3F103FB15228900B2F5B77F08D3A5
:100450009B10521EB2FBF3F52944B2FBF3F503FBEC
:1004600015220F4BE261616189077B440CD03B2A66
:100470000AD3521C08E02C21204600F013F801207A
:10048000E0600AE0521A401C195C9142FAD9521CF1
:10049000C4E903204FF0FF302062204670BD000009
:1004A000762100004FF0000200B5134694469646B0
:1004B000203922BFA0E80C50A0E80C50B1F1200177
:1004C000BFF4F7AF090728BFA0E80C5048BF0CC025
:1004D0005DF804EB890028BF40F8042B08BF704783
:1004E00048BF20F8022B11F0804F18BF00F8012BF5
:1004F0007047754600F02CF8AE4605006946534635
:1005000020F00700854618B020B5FFF74BFEBDE888
:1005100020404FF000064FF000074FF000084FF06A
:10052000000B21F00701AC46ACE8C009ACE8C009FB
:10053000ACE8C009ACE8C0098D46704710B5044668
:10054000AFF300802046BDE81040FFF716BE000064
:10055000004870476C00002001491820ABBEFEE740
:10056000260002007047000008B5014600200090F8
:10057000034800900098084400900098008808BD47
:10058000006C004008B500220092044A0092009AD4
:1005900002440092009A116008BD0000006C004007
:1005A00000BFFEE708B50121082000F027FF10205A
:1005B0008DF803000002ADF8000003208DF8020062
:1005C0006946044800F066FA4FF48051014800F093
:1005D00000FB08BD000C014010B50024002000F015
:1005E00045F804E0601CC4B2012000F03CFA4FF46E
:1005F00000510F4800F0D9FA08B1642CF2DB642CEA
:1006000001DB012010BD002404E0601CC4B2012005
:1006100000F029FA4FF40051054800F0C6FA08B975
:10062000642CF2DB642C01DB0120EBE70020E9E71E
:10063000000C014008B50121082000F0DFFE4FF456
:100640000050ADF8000014208DF8030003208DF851
:1006500002006946044800F01DFA4FF400510248B8
:1006600000F0B7FA08BD0000000C014038B50446A0
:1006700054B14FF40050ADF8000003208DF8020093
:1006800010208DF8030006E04FF40050ADF8000094
:1006900004208DF803006946014800F0FBF938BDDD
:1006A000000C014010B5002404E0601CC4B201201D
:1006B00000F0D9F94FF40051104800F076FA08B173
:1006C000642CF2DB002404E0601CC4B2012000F0C2
:1006D000CAF94FF40051094800F067FA08B9642CD0
:1006E000F2DB232000F0BFF94FF40051034800F083
:1006F0005CFA08B1012010BD0020FCE7000C0140AD
:1007000070B50025002407E0FFF7CCFF10B1802072
:1007100020410543601CC4B2082CF5DB284670BD9F
:100720007CB5054600F02CF8FFF756FF18BB0024F7
:1007300005E0FFF7E5FF0DF80400601CC4B2052CCE
:10074000F7DB9DF800009DF8011008449DF80210A9
:1007500008449DF8031008449DF8041088420CD109
:10076000002405E01DF8040040B22855601CC4B206
:10077000052CF7DB01E001207CBD0020FCE7000038
:1007800010B50120FFF772FF4FF40051074800F049
:100790001EFA122000F05BF94FF40051034800F0FC
:1007A00018FA142000F05FF910BD0000000C0140A1
:1007B00070B504460D46287800284FD02848008898
:1007C000002841D00122A11C2648006801F076FAD9
:1007D00024480068401C2349086021480088401EC6
:1007E0001F490880012221461E48006801F066FA70
:1007F0001C480068401C1B49086019480088401EBE
:1008000017490880012218491648006801F056FA75
:1008100014480068401C1349086011480088401EB5
:100820000F49088001221049891C0E48006801F018
:1008300045FA0C480068401C0A49086008480088CE
:10084000401E0749088009E04FF4805005490860C0
:10085000801003490880800001F07BFA70BD000021
:100860000600002008000020120000202DE9FC47AF
:100870008046894615461E460A9F002400200090A7
:1008800001903878002808D12888B0F5AA7F05DDC6
:10089000002028804FF48050306089E002247FE0FF
:1008A00004226946306801F030FA9DF90000401CCE
:1008B00020B19DF90100401C002832D1E0B25CA2B9
:1008C000012100F04EFDE0B25AA2032100F049FDE3
:1008D000E0B257A2042100F044FDE0B254A2062188
:1008E00000F03FFDE0B254A2082100F03AFDE0B272
:1008F0004FA2092100F035FDE0B250A20B2100F01B
:1009000030FDE0B24EA20D2100F02BFDE0B248A276
:100910000E2100F026FDE0B24AA2102100F021FDD8
:1009200039E09DF90220E0B20223012100F0C4FC6D
:10093000E0B240A2032100F014FD9DF90320E0B2D3
:100940000223042100F0B8FCE0B239A2062100F035
:1009500008FDE0B238A2082100F003FD9DF9002057
:10096000E0B20223092100F0A7FCE0B233A20B2180
:1009700000F0F7FCE0B232A20D2100F0F2FC9DF98C
:100980000120E0B202230E2100F096FCE0B22DA27D
:10099000102100F0E6FC3068001D3060601C44B29D
:1009A000052CFFF67DAF012038702888401C288078
:1009B0002A8803230A21012000F07EFC98F8000019
:1009C000032807D00421204800F0EFF820B999F857
:1009D000000008B10020387098F80000042807D003
:1009E0000121194800F0E1F8A0B999F8000088B198
:1009F000002038702888012806D14FF4AA7028807A
:100A000041F6F070306005E02888801E288030684C
:100A10001838306098F80000022806D1002038709D
:100A20004FF48050306000202880BDE8FC87000033
:100A30002D2D00003A0000002800000021000000D9
:100A4000290000002500000000080140704700B5A3
:100A5000034603E04FF47A7000F005F8181EA3F186
:100A60000103F7D100BD00EBC001C9004FF0E02247
:100A70005161002191610521116100BF4FF0E0211A
:100A8000096901F480310029F8D004214FF0E022F7
:100A9000116170472DE9F041024600250026002033
:100AA00000230024002791F803C00CF00F0591F8F3
:100AB00003C00CF0100CBCF1000F03D091F802C081
:100AC0004CEA050591F800C0BCF1000F31D0146864
:100AD00000202BE04FF0010C0CFA00F3B1F800C03D
:100AE0000CEA03069E4220D183004FF00F0C0CFA53
:100AF00003F7BC4305FA03FC4CEA040491F803C075
:100B0000BCF1280F06D14FF0010C0CFA00FCC2F822
:100B100014C00AE091F803C0BCF1480F05D14FF0B2
:100B2000010C0CFA00FCC2F810C0401C0828D1D3FC
:100B30001460B1F800C0BCF1FF0F34DD5468002030
:100B40002EE000F1080C4FF0010808FA0CF3B1F8A0
:100B500000C00CEA03069E4221D183004FF00F0C27
:100B60000CFA03F7BC4305FA03FC4CEA040491F8C1
:100B700003C0BCF1280F05D100F1080C08FA0CF8ED
:100B8000C2F8148091F803C0BCF1480F07D100F1FE
:100B9000080C4FF0010808FA0CF8C2F81080401C4D
:100BA0000828CED35460BDE8F08102460020936847
:100BB0000B400BB1012000E00020704702460020EE
:100BC000D3680B400BB1012000E000207047416169
:100BD0007047016170470AB1016100E041617047EF
:100BE00000BFFEE710B500F0BBFA01F063F800F0BB
:100BF00071F800F0B1F8FFF71DFDFFF7D3FC00F02E
:100C0000ABF800F047FE00F0C5F810BD10B50024A9
:100C100040210C48FFF7C9FF00B901241021094801
:100C2000FFF7C3FF00B9022404210648FFF7BDFF08
:100C300000B9032401210348FFF7B7FF00B90424DA
:100C4000204610BD0008014010B51A4800781A4926
:100C50000870FFF7DBFF1749087017480078012874
:100C600006D10846007818B90120144908701FE021
:100C700011480078022806D10E48007818B90220E1
:100C80000E49087014E00C480078032806D1094882
:100C9000007818B903200949087009E0064800786F
:100CA000042805D10348007810B9042003490870CE
:100CB00010BD000001000020020000200000002004
:100CC0000020034908780021014A11707047000094
:100CD0000000002008B50121042000F08FFB48200F
:100CE0008DF803005520ADF8000003208DF80200B8
:100CF00069460248FFF7CEFE08BD0000000801402B
:100D000010B54FF480410848FFF758FF28B94FF459
:100D100080410548FFF75DFF04E04FF48041024841
:100D2000FFF755FF10BD0000000C014010B54FF457
:100D300000410848FFF742FF28B94FF40041054839
:100D4000FFF747FF04E04FF400410248FFF73FFF81
:100D500010BD0000000C014008B50121082000F082
:100D60004DFB10208DF803004FF44040ADF800001B
:100D700003208DF8020069460448FFF78BFE4FF40C
:100D800040410248FFF725FF08BD0000000C01406C
:100D900000BFFEE710B50121080700F01FFB01218D
:100DA000C80600F01BFB012000F010FB0420FFF739
:100DB000DBFB4AF2A551884220D0012000F04CFB19
:100DC00000BF412000F02AFB0128FAD1000200F008
:100DD00063FB012000F05AFB00F0ACFB00F0A0FB2D
:100DE00047F6FF7000F08CFB00F09AFB00F032F841
:100DF0004AF2A5510420FFF7C5FB03E000F09AFB7F
:100E000000F08EFB10BD000010B58CB000F060FB50
:100E100000F5E1400B900BA8FFF708FA04462C22DE
:100E200021466846FFF7D0F9059800F26D70084931
:100E3000088004980C30488003980F30888002980E
:100E40000C30C88001980881009848810CB010BD12
:100E50000C00002010B58CB010480088A0F26C7017
:100E600006900E484088401E05900C4880880490EB
:100E70000A48C088039009480089029007484089C1
:100E8000019001A8FFF7F7F9A0F5E144204600F032
:100E900029FB00F045FB0CB010BD00000C00002049
:100EA00008B50121042000F0A9FA10208DF80300F4
:100EB0004FF49850ADF8000003208DF80200694609
:100EC0000B48FFF7E7FD48208DF803004FF4006062
:100ED000ADF8000003208DF8020069460448FFF7D2
:100EE000D9FD012000F052F8002000F043F808BDC1
:100EF0000008014010B54FF400610248FFF755FEAD
:100F000010BD00000008014010B5002000F03EF8C0
:100F100010BD10B5012000F039F810BD70B50546C0
:100F20000026002400BF14E08021214101EA0500D1
:100F300000F014F8012000F01DF8FFF7DBFF012896
:100F400002D1802020410643002000F013F8601CED
:100F5000C4B2082CE8DB304670BD000010B5044672
:100F600022464FF480710248FFF735FE10BD0000A5
:100F70000008014010B5044622464FF400710248B3
:100F8000FFF729FE10BD00000008014010B504461F
:100F900022464FF480510248FFF71DFE10BD0000AD
:100FA000000801407047000070B5002100230F22A7
:100FB000C47804B3154C246804F4E064C4F5E06418
:100FC000210AC1F10403CA40447804FA03F1847889
:100FD0001440214309010E4C0678A155047804F011
:100FE0001F050124AC4005786D11AD0005F1E02529
:100FF000C5F8004109E0047804F01F050124AC4065
:10100000044D0678761145F8264070BD0CED00E0E1
:1010100000E400E080E100E002490143024A11607F
:10102000704700000000FA050CED00E070B50024E8
:101030000EE00021204600F0F4F8002504E0002036
:1010400000F0B3F9681CC5B2802DF8DB601CC4B297
:10105000082CEEDB70BD000008B50121082000F06F
:10106000CDF914208DF8030003208DF802004FF411
:101070008070ADF8000069460A48FFF70BFD4FF499
:101080000070ADF8000069460648FFF703FD012235
:1010900011020448FFF79FFD012251020148FFF7AA
:1010A0009AFD08BD000C014070B50546002419E00A
:1010B00080202041284008B1012000E000200246A5
:1010C0004FF400710E48FFF786FD012211020C4813
:1010D000FFF781FD00224FF480710948FFF77BFD87
:1010E000601CC4B2082CE3DB012211020448FFF7A4
:1010F00072FD00224FF480710148FFF76CFD70BD56
:10110000000C014010B5012251020A48FFF763FDAF
:10111000012211020748FFF75EFD00224FF4007123
:101120000448FFF758FD00224FF480710148FFF793
:1011300052FD10BD000C014010B500224FF40071AB
:101140000648FFF748FD012211020448FFF743FD5E
:10115000012251020148FFF73EFD10BD000C014085
:1011600070B5002406E0002500E06D1CB5F57A7F1F
:10117000FBD3641CB4F57A7FF5D3FFF76DFFAE2087
:1011800000F003F9D52000F000F9802000F0FDF810
:10119000A82000F0FAF83F2000F0F7F8D32000F084
:1011A000F4F8002000F0F1F8402000F0EEF8A12063
:1011B00000F0EBF8C82000F0E8F8DA2000F0E5F8DD
:1011C000122000F0E2F8812000F0DFF8CF2000F0DC
:1011D000DCF8D92000F0D9F8F12000F0D6F8DB20B7
:1011E00000F0D3F8302000F0D0F8A42000F0CDF8C3
:1011F000A62000F0CAF88D2000F0C7F8142000F0F7
:10120000C4F8AF2000F0C1F8FFF710FF70BD10B5B3
:101210000246012000E050430B1EA1F10101FAD16A
:1012200010BD70B505460C4645F0B00000F0ADF8B5
:10123000102141EA141000F0A8F804F00F0000F0AB
:10124000A4F870BD2DE9F04105460E461746721E02
:10125000D206110E6A1E5206100EFFF7E2FF00249E
:1012600009E0A7F12001134A02EB0111085D00F02B
:101270009CF8601CC4B2082CF3DB721ED206110E5F
:101280006A1E012303EB4202D0B2FFF7CAFF00241B
:101290000BE0A7F12001074A02EB011204F108015B
:1012A000505C00F082F8601CC4B2082CF1DBBDE891
:1012B000F0810000F41F00082DE9F04780460E463B
:1012C00017461D46002415E0281B411E0A20FFF783
:1012D0009EFFB7FBF0F00A21B0FBF1F201FB120018
:1012E00000F130093019C1B24A464046FFF7AAFF63
:1012F000601CC4B2AC42E7DBBDE8F0872DE9F047E3
:101300008146884615461E46002D06DB20224146B2
:101310004846FFF797FF2F4605E02D2241464846F5
:10132000FFF790FF6F42002417E0301B411E0A2098
:10133000FFF76DFFB7FBF0F00A21B0FBF1F201FB04
:10134000120000F1300A08EB0400401CC1B2524602
:101350004846FFF777FF601CC4B2B442E5DBBDE846
:10136000F0872DE9F04107460E461546002407E0B8
:101370002A5D3019C1B23846FFF764FF601CC4B261
:10138000285D0028F4D1BDE8F08110B50446FFF7D0
:10139000B9FE7820FFF788FE0020FFF785FE204683
:1013A000FFF782FEFFF7C8FE10BD10B50446FFF739
:1013B000A9FE7820FFF778FE4020FFF775FE204653
:1013C000FFF772FEFFF7B8FE10BD0000014908628A
:1013D0007047000000000E427047000029B1064A25
:1013E000D2690243044BDA6104E0034AD2698243C2
:1013F000014BDA61704700000010024029B1064A33
:1014000092690243044B9A6104E0034A9269824361
:10141000014B9A61704700000010024010B5014670
:101420000022002300204A11012A02D1094C23681E
:1014300006E0022A02D1074C236A01E0054C636AE8
:1014400001F01F02012494401C400CB1012000E077
:10145000002010BD0010024000210B4A11700A4A02
:10146000203A82F82010012802D0042808D103E095
:101470000121054A117004E00521034A117000E0C2
:1014800000BF00BF70470000201002400149086003
:10149000704700003C0442420249096A0143014A84
:1014A00011627047001002400348008840F01000AD
:1014B0000149088070470000042800400348008864
:1014C0004FF6EF710840014908807047042800403A
:1014D000002103480188001F008841EA004070474E
:1014E0001C28004000B50246FFF7DEFF100C034940
:1014F0000880091D0A80FFF7E1FF00BD18280040A1
:1015000000B50246FFF7D0FFC2F30340034908804D
:10151000091D0A80FFF7D2FF00BD00000828004027
:1015200000BF0348008800F020000028F9D0704771
:1015300004280040074800884FF6F7710840054925
:10154000088000BF0348008800F008000028F9D098
:101550007047000004280040704710B500F002F802
:1015600010BD00000CB500200190009033480068C9
:1015700040F480303149086000BF3048006800F412
:10158000003000900198401C0190009818B9019813
:10159000B0F5A06FF1D12948006800F4003010B117
:1015A0000120009001E0002000900098012843D124
:1015B0002348006840F01000214908600846006890
:1015C00020F0030008600846006840F00200086050
:1015D0001A4840681949486008464068486008460B
:1015E000406840F4806048600846406820F47C1001
:1015F00048600846406840F4E810486008460068C3
:1016000040F08070086000BF0C48006800F0007077
:101610000028F9D00948406820F0030007494860D5
:101620000846406840F00200486000BF0348406838
:1016300000F00C000828F9D10CBD00000010024099
:10164000002002407047000010B51348006840F0C9
:1016500001001149086008464068104908400E49D9
:101660004860084600680E4908400B490860084673
:10167000006820F4802008600846406820F4FE00DE
:1016800048604FF41F008860FFF767FF4FF000606D
:101690000449086010BD0000001002400000FFF87F
:1016A000FFFFF6FE08ED00E010B50121880700F00D
:1016B0007FF8012856D12C480068401C2A49086050
:1016C00008460068B0F5FA7F09D300200860274873
:1016D000007808B9012000E00020244908700421A6
:1016E0002348FFF762FA20B101212148FFF75DFA94
:1016F00068B920480068401C1E4908600846006818
:10170000B0F5487F08D301201B49087004E0002091
:10171000184908601849087018480068401C1749A3
:10172000086008460068142803D300200860FFF70B
:101730008BFA13480068401C11490860084600688D
:10174000104988420AD300200D4908600E480078ED
:1017500008B9012000E000200B490870012188072A
:1017600000F017F810BD000030000020230000201A
:101770000008014034000020240000203800002030
:101780003C000020C073260025000020CA430282CE
:101790007047CA430282704721B1028842F00102B9
:1017A000028004E002884FF6FE731A400280704700
:1017B00030B50246002000230024158A05EA010303
:1017C000958905EA010413B10CB1012000E0002065
:1017D00030BD1AB183890B43838102E083898B4337
:1017E0008381704701894FF6F8721140018170477B
:1017F000002202881D4B98420ED01D4B98420BD000
:10180000B0F1804F08D01B4B984205D01A4B98423C
:1018100002D01A4B984204D14FF68F731A404B886E
:101820001A43174B984207D0164B984204D04FF6F4
:10183000FF431A40CB881A4302808B8883850B882C
:1018400003850A4B98420BD0094B984208D00E4BA7
:10185000984205D00D4B984202D00D4B984201D1D1
:101860000B7A03860123838270470000002C01401D
:10187000003401400004004000080040000C00401B
:1018800000100040001400400040014000440140AE
:10189000004801401FB501210846FFF79FFD4FF0AA
:1018A0008040FFF79FFF0020ADF80A00ADF806006A
:1018B0000920ADF8080041F61F40ADF804000020F3
:1018C0008DF80C0001A94FF08040FFF791FF012136
:1018D0008807FFF75BFF012211469007FFF779FFAA
:1018E0004FF4A060FFF798FB1C208DF8000001204A
:1018F0008DF8030002208DF8010001208DF8020010
:101900006846FFF751FB01218807FFF745FF1FBD20
:1019100000BFFEE770B504460D461646FFF774FAA1
:101920005A480288042301211846FFF7C5FC57488E
:101930004288022306210420FFF7BEFC5348828818
:10194000022309210420FFF7B7FC5048C288022374
:101950000C210420FFF7B0FC4C48028902230F2120
:101960000420FFF7A9FC2046FEF7DAFE48A2012179
:101970000846FFF7F6FC6420FFF769F894F90220A7
:10198000022303211846FFF797FC43A205210220FA
:10199000FFF7E7FC94F90320012306210220FFF75B
:1019A0008BFC3EA207210220FFF7DBFC94F900200C
:1019B000022303210846FFF77FFC37A205210320FD
:1019C000FFF7CFFC94F90120012306210320FFF744
:1019D00073FC33A207210320FFF7C3FC31480078D2
:1019E000002852D13078022808D12E48007808B952
:1019F000012000E000202B49087046E0042229461F
:101A0000002000F082F994F9020095F90110884253
:101A100005DB94F9020095F90010884214DDFFF708
:101A20006FF96420FFF713F8FFF76AF96420FFF7F6
:101A30000EF8FFF765F96420FFF709F8FFF760F982
:101A40004FF42F70FFF703F894F9000095F9031095
:101A5000884205DB94F9000095F90210884214DDF4
:101A6000FFF764F96420FEF7F2FFFFF75FF96420E7
:101A7000FEF7EDFFFFF75AF96420FEF7E8FFFFF7E6
:101A800055F94FF42F70FEF7E2FF70BD0C000020F7
:101A900057656C636F6D65002E00000021430000E8
:101AA00025524800040000202DE9F04104460F466D
:101AB00015461E46DDF8188075A201210846FFF77D
:101AC00050FC75A201210320FFF74BFC73A20921F2
:101AD0000320FFF746FC72A201210220FFF741FC20
:101AE00070A209210220FFF73CFC94F90020022398
:101AF00004211846FFF702FC94F901200223042177
:101B00000320FFF7FBFB94F9022002230C21184667
:101B1000FFF7F4FB94F9032002230C210320FFF7C5
:101B2000EDFB387802280AD12878401C28702878E4
:101B3000C11700EB91718910A0EB810129703878F1
:101B4000032807D004215848FFF72FF840BB98F826
:101B5000000028B32878205C401C40B229786054EB
:101B600094F90000502801DD5020207094F9020003
:101B7000632801DD6320A07094F9010094F900103E
:101B8000884203DB6078401E40B2607094F9030025
:101B900094F90210884203DBE078401E40B2E07006
:101BA0003878042807D001213F48FEF7FEFF48BBE4
:101BB00098F8000030B32878205C401E40B22978A5
:101BC000605494F9010010F1280F01DAD8206070F8
:101BD00094F90300002801DA0020E07094F9000075
:101BE00094F90110884203DC2078401C40B2207038
:101BF00094F9020094F90310884203DCA078401C99
:101C000040B2A070287840B93078012805D127A2C9
:101C100007210220FFF7A5FB04E025A207210220EF
:101C2000FFF79FFB2878012808D13078012805D1DB
:101C30001EA207210320FFF794FB04E01CA207214A
:101C40000320FFF78EFB2878022808D1307801287E
:101C500005D116A20F210220FFF783FB04E014A296
:101C60000F210220FFF77DFB2878032808D1307868
:101C7000012805D10DA20F210320FFF772FB04E01C
:101C80000BA20F210320FFF76CFBBDE8F0810000E1
:101C900053657474696E6700285F3A00295F3A00E3
:101CA000285E3A00295E3A00000801403C0000002E
:101CB0002020000010B5FFF7F3F810BD2DE9F0412A
:101CC00004460E461746002500F074F8FFF71CF98D
:101CD0000220FFF723F9C4F30740FFF71FF9C4F30D
:101CE0000720FFF71BF9E0B2FFF718F900BF04E087
:101CF000705DFFF713F9681C85B2BD42F8DBFFF792
:101D000008F900F03FF8BDE8F0812DE9F041044604
:101D10000E4617460025FFF7F7F80320FFF7FEF8F9
:101D2000C4F30740FFF7FAF8C4F30720FFF7F6F80B
:101D3000E0B2FFF7F3F800BF05E0FF20FFF7EEF891
:101D400040B270556D1CBD42F7D3FFF7E2F8BDE815
:101D5000F08110B5044600F02DF8FFF7D5F82020EB
:101D6000FFF7DCF8C4F30740FFF7D8F8C4F3072007
:101D7000FFF7D4F8E0B2FFF7D1F8FFF7CAF800F0A8
:101D800001F810BD10B50A4CFFF7BEF80520FFF7AB
:101D9000C5F802E0641E04B906E0FF20FFF7BEF8B4
:101DA00000F001000028F5D100BFFFF7B2F810BD28
:101DB000A086010010B5FFF7A7F80620FFF7AEF8E0
:101DC000FFF7A7F810BD000008B5FEF70BFF0422CF
:101DD0006D490020FFF799FF04226C499002FFF73C
:101DE00094FF694890F9000050281FDC664890F97C
:101DF000010010F1280F19DB634890F902006428F4
:101E000014DC614890F9030000280FDB5E4890F96C
:101E100001005D4991F90010884207DC5A4890F9A9
:101E20000300594991F90210884208DD05205649FE
:101E300048701E2008701420C8705020887054A26A
:101E400001210220FFF78DFA52A201210320FFF7A2
:101E500088FA51A201210420FFF783FA51A20C2134
:101E60000420FFF77EFA8EE0FEF72AFF4F49087044
:101E700008460078012859D14D480078401C4C494B
:101E8000087008460078032190FBF1F201FB120074
:101E90004749087008460078B0B9FFF7C7F83CA278
:101EA00001210220FFF75DFA3AA201210320FFF78A
:101EB00058FA39A201210420FFF753FA39A20C2164
:101EC0000420FFF74EFA31E039480078012807D1A5
:101ED000FFF7ACF804222C490020FFF716FF25E09D
:101EE00033480078022821D10020FFF732FF042276
:101EF00025490020FFF7E2FE2EA201210420FFF772
:101F000030FA40F2E240FEF7A2FDFFF78FF82BA275
:101F100001210846FFF725FA00202D4908804FF4DB
:101F200080502C49086000202B4908702048007818
:101F300020B101280CD002281CD112E01B4A124902
:101F40001248FFF7E7FC25491048FEF731FC19E07D
:101F50002348244B244A154900900B48FFF7A4FD61
:101F600010E01D481B4B1A4A1D4900900F48FEF710
:101F70007DFC07E0FFF75AF81CA201210846FFF795
:101F8000F0F900BF00BF6FE71C0000201800002020
:101F9000283A0000293A0000585858582D58582D12
:101FA0005858000058583A585800000020000020A7
:101FB00021000020534554204F4B000044617461C0
:101FC00020202020202020312F3334310000000039
:101FD00026000020280000202C00002025000020E2
:101FE0002400002023000020220000204552524FF0
:101FF000520000000000000000000000000000008F
:1020000000000000000000000C12120C0000000094
:1020100000000000000000FCA8000000003048475D
:102020004830000040C07840C0784000043F0404BD
:102030003F040400007088FC08300000001820FFF6
:10204000211E0000F008F000E018000000211C0331
:102050001E211E0000F00888700000001E212324AD
:102060001927211010160E000000000000000000CB
:10207000000000000000FE01FE000000182649409C
:102080004126180000E0100E30C000000718332071
:1020900030180F00404080F0804040000202010FE5
:1020A00001020200000000F0000000000101011F19
:1020B00001010100000000000000000080B070007D
:1020C000000000000000000000000000000101010D
:1020D000010101010000000000000000003030009C
:1020E0000000000000000000806018040060180676
:1020F0000100000000E010080810E000000F1020B0
:1021000020100F00001010F8000000000020203FF9
:102110002020000000700808088870000030282483
:102120002221300000300888884830000018202024
:1021300020110E000000C02010F800000007042449
:10214000243F240000F8088888080800001921208E
:1021500020110E0000E0108888180000000F1120E8
:1021600020110E0000380808C83808000000003FA1
:10217000000000000070880808887000001C222100
:1021800021221C0000E010080810E00000003122AD
:1021900022110F0000000060600000000000000637
:1021A00006000000000000800000000000008060C9
:1021B0000000000080C060301000000003070D190F
:1021C000110101014040404040404000040404042B
:1021D00004040400000810204080000000201008C3
:1021E00004020100007048080808F00000000030F8
:1021F00036010000C030C828E810E0000718272486
:1022000023140B000000C038E0000000203C230233
:102210000227382008F8888888700000203F202096
:1022200020110E00C03008080808380007182020C8
:102230002010080008F808080810E000203F2020BF
:1022400020100F0008F88888E8081000203F2020A0
:102250002320180008F88888E8081000203F200094
:1022600003000000C03008080838000007182020CC
:10227000221E020008F808000008F808203F21018B
:1022800001213F20000808F8080800000020203F36
:102290002020000000000808F8080800C0808080A6
:1022A0007F00000008F888C028180800203F20019F
:1022B0002638200008F8080000000000203F2020F9
:1022C0002020300008F8F800F8F80800203F003F10
:1022D000003F200008F830C00008F808203F200028
:1022E00007183F00E01008080810E0000F10202039
:1022F00020100F0008F808080808F000203F21010E
:1023000001010000E01008080810E0000F18242464
:1023100038504F0008F8888888887000203F2000D7
:10232000030C30200070880808083800003820218D
:1023300021221C00180808F8080818000000203F97
:102340002000000008F808000008F808001F2020FE
:1023500020201F000878880000C8380800000738CF
:102360000E010000F80800F80008F800033C070020
:10237000073C0300081868808068180820302C0388
:10238000032C30200838C800C83808000000203F5F
:102390002000000010080808C8380800203826214E
:1023A00020201800000000FE020202000000007F52
:1023B00040404000000C30C0000000000000000160
:1023C0000638C00000020202FE000000004040404B
:1023D0007F000000C06030F8F83060C00000003FAF
:1023E0003F000000000000F8F8000000060C183F55
:1023F0003F180C060002020400000000000000006C
:10240000000000000000808080800000001924226D
:1024100022223F2008F8008080000000003F1120A9
:1024200020110E000000008080800000000E1120AE
:1024300020201100000000808088F800000E11208C
:1024400020103F200000808080800000001F22229A
:1024500022221300008080F0888888180020203F06
:10246000202000000000808080808000006B949419
:102470009493600008F8008080800000203F2100D5
:1024800000203F2000809898000000000020203F9E
:1024900020200000000000809898000000C080808C
:1024A000807F000008F8000080808000203F240228
:1024B0002D302000000808F8000000000020203F18
:1024C000202000008080808080808000203F2000CD
:1024D0003F20003F8080008080800000203F21005E
:1024E00000203F200000808080800000001F20200E
:1024F00020201F00808000808000000080FFA1203D
:1025000020110E000000008080808000000E11204D
:1025100020A0FF80808080008080800020203F21DC
:10252000200001000000808080808000003324248F
:1025300024241900008080E0808000000000001F3B
:10254000202000008080000000808000001F2020EC
:1025500020103F20808080000080808000010E30AD
:102560000806010080800080008080800F300C030E
:102570000C300F0000808000808080000020312E11
:102580000E312000808080000080808080818E70ED
:102590001806010000808080808080000021302C9F
:1025A0002221300000000000807C020200000000B8
:1025B000003F404000000000FF000000000000005D
:1025C000FF0000000002027C800000000040403F4D
:1025D00000000000000201020204020000000000EE
:1025E000000000001F1D1F1E1F1E1F1F1E1F1E1F7D
:1025F000102600080000002040000000280100080C
:102600005026000840000020900600004401000809
:10261000000000000000000400100000E7070100B7
:10262000010017003B003700000000000000000020
:10263000000000000000000000100000000000008A
:10264000000000000000000000000000000000008A
:04000005080000ED02
:00000001FF
