:020000040800F2
:100000007806002089010008C108000835060008AC
:10001000B907000843020008D10D000800000000E5
:10002000000000000000000000000000810C00083B
:10003000A1040008000000005F0C00086D0D00081E
:10004000A3010008A3010008A3010008A301000800
:10005000A3010008A3010008A3010008A3010008F0
:10006000A3010008A3010008A3010008A3010008E0
:10007000A3010008A3010008A3010008A3010008D0
:10008000A3010008A3010008A3010008A3010008C0
:10009000A3010008A3010008A3010008A3010008B0
:1000A000A3010008A3010008A3010008A3010008A0
:1000B000A3010008A3010008A3010008A301000890
:1000C000A3010008A3010008A3010008A301000880
:1000D000A3010008A3010008A3010008A301000870
:1000E000A3010008A3010008A301000800F002F822
:1000F00000F03AF80AA090E8000C82448344AAF188
:100100000107DA4501D100F02FF8AFF2090EBAE885
:100110000F0013F0010F18BFFB1A43F0010318473B
:100120004418000064180000103A24BF78C878C151
:10013000FAD8520724BF30C830C144BF04680C60ED
:10014000704700000023002400250026103A28BF35
:1001500078C1FBD8520728BF30C148BF0B60704739
:100160001FB51FBD10B510BD00F031F81146FFF7E7
:10017000F7FF01F053F800F04FF803B4FFF7F2FF78
:1001800003BC00F057F800000948804709480047C1
:10019000FEE7FEE7FEE7FEE7FEE7FEE7FEE7FEE737
:1001A000FEE7FEE704480549054A064B7047000094
:1001B000710D0008ED00000878000020780600208E
:1001C000780200207802002070477047704775461B
:1001D00000F02CF8AE4605006946534620F00700B3
:1001E000854618B020B5FFF7DDFFBDE820404FF091
:1001F00000064FF000074FF000084FF0000B21F011
:100200000701AC46ACE8C009ACE8C009ACE8C009DD
:10021000ACE8C0098D46704710B50446AFF30080C6
:100220002046BDE81040FFF7A8BF00000048704717
:100230001400002001491820ABBEFEE72600020092
:10024000704700BFFEE7000008B50121082000F05C
:1002500007FD10208DF803000002ADF80000032018
:100260008DF802006946044800F03EF94FF48051D1
:10027000014800F0D8F908BD000C014010B5002479
:10028000002000F045F804E0601CC4B2012000F03A
:1002900014F94FF400510F4800F0B1F908B1642C83
:1002A000F2DB642C01DB012010BD002404E0601CA3
:1002B000C4B2012000F001F94FF40051054800F0EC
:1002C0009EF908B9642CF2DB642C01DB0120EBE71A
:1002D0000020E9E7000C014008B50121082000F0EA
:1002E000BFFC4FF40050ADF8000014208DF803005F
:1002F00003208DF802006946044800F0F5F84FF439
:100300000051024800F08FF908BD0000000C0140C8
:1003100038B5044654B14FF40050ADF80000032046
:100320008DF8020010208DF8030006E04FF4005015
:10033000ADF8000004208DF803006946014800F084
:10034000D3F838BD000C014010B5002404E0601C57
:10035000C4B2012000F0B1F84FF40051104800F091
:100360004EF908B1642CF2DB002404E0601CC4B236
:10037000012000F0A2F84FF40051094800F03FF9C5
:1003800008B9642CF2DB232000F097F84FF40051F9
:10039000034800F034F908B1012010BD0020FCE74B
:1003A000000C014070B50025002407E0FFF7CCFFEA
:1003B00010B1802020410543601CC4B2082CF5DB3D
:1003C000284670BD7CB5054600F02CF8FFF756FFB7
:1003D00018BB002405E0FFF7E5FF0DF80400601CE2
:1003E000C4B2052CF7DB9DF800009DF8011008440D
:1003F0009DF8021008449DF8031008449DF804106D
:1004000088420CD1002405E01DF8040040B22855B4
:10041000601CC4B2052CF7DB01E001207CBD00208C
:10042000FCE7000010B50120FFF772FF4FF4005108
:10043000074800F0F6F8122000F033F84FF40051AE
:10044000034800F0F0F8142000F037F810BD000069
:10045000000C014010B504460F48008880B104220A
:1004600021460E48006800F053FE0C480068001D4D
:100470000A49086008480088401E0749088009E0CA
:100480004FF48050054908608010034908808000BF
:1004900000F089FE10BD00000200002004000020D2
:1004A000704700B5034603E04FF47A7000F005F89A
:1004B000181EA3F10103F7D100BD00EBC001C90074
:1004C0004FF0E0225161002191610521116100BFCF
:1004D0004FF0E021096901F480310029F8D00421AE
:1004E0004FF0E022116170472DE9F04102460025EE
:1004F0000026002000230024002791F803C00CF000
:100500000F0591F803C00CF0100CBCF1000F03D0E4
:1005100091F802C04CEA050591F800C0BCF1000F4B
:1005200031D0146800202BE04FF0010C0CFA00F3DE
:10053000B1F800C00CEA03069E4220D183004FF0C0
:100540000F0C0CFA03F7BC4305FA03FC4CEA040455
:1005500091F803C0BCF1280F06D14FF0010C0CFA42
:1005600000FCC2F814C00AE091F803C0BCF1480FC7
:1005700005D14FF0010C0CFA00FCC2F810C0401C71
:100580000828D1D31460B1F800C0BCF1FF0F34DDEE
:10059000546800202EE000F1080C4FF0010808FA22
:1005A0000CF3B1F800C00CEA03069E4221D183008F
:1005B0004FF00F0C0CFA03F7BC4305FA03FC4CEAAE
:1005C000040491F803C0BCF1280F05D100F1080C18
:1005D00008FA0CF8C2F8148091F803C0BCF1480F77
:1005E00007D100F1080C4FF0010808FA0CF8C2F826
:1005F0001080401C0828CED35460BDE8F08102462C
:10060000002093680B400BB1012000E000207047F0
:1006100002460020D3680B400BB1012000E000200F
:10062000704741617047016170470AB1016100E0A4
:100630004161704700BFFEE710B500F0DBF900F044
:1006400063FD00F05BF800F09BF8FFF745FEFFF755
:10065000FBFD00F095F810BD10B5002440212648A0
:10066000FFF7CDFF68B91420FFF71BFF00BF402143
:100670002148FFF7C4FF0028F9D01420FFF711FF2D
:10068000012410211C48FFF7BAFF68B91420FFF7B6
:1006900008FF00BF10211848FFF7B1FF0028F9D06C
:1006A0001420FFF7FEFE022404211348FFF7A7FFE2
:1006B00068B91420FFF7F5FE00BF04210E48FFF7CC
:1006C0009EFF0028F9D01420FFF7EBFE0324012140
:1006D0000948FFF794FF68B91420FFF7E2FE00BF56
:1006E00001210548FFF78BFF0028F9D01420FFF700
:1006F000D8FE0424204610BD0008014008B50121A1
:10070000042000F0ADFA48208DF803005520ADF824
:10071000000003208DF8020069460248FFF7E4FE5E
:1007200008BD00000008014010B54FF480410848A2
:10073000FFF76EFF28B94FF480410548FFF773FFBC
:1007400004E04FF480410248FFF76BFF10BD00004A
:10075000000C014010B54FF400410848FFF758FF66
:1007600028B94FF400410548FFF75DFF04E04FF45E
:1007700000410248FFF755FF10BD0000000C01408A
:1007800008B50121082000F06BFA10208DF8030055
:100790004FF44040ADF8000003208DF80200694698
:1007A0000448FFF7A1FE4FF440410248FFF73BFF2A
:1007B00008BD0000000C014000BFFEE708B50121A4
:1007C000042000F04DFA10208DF803004FF49850EB
:1007D000ADF8000003208DF8020069460B48FFF7D2
:1007E00083FE48208DF803004FF40060ADF8000050
:1007F00003208DF8020069460448FFF775FE0120CA
:1008000000F052F8002000F043F808BD0008014055
:1008100010B54FF400610248FFF7F1FE10BD000073
:100820000008014010B5002000F03EF810BD10B5E2
:10083000012000F039F810BD70B5054600260024EF
:1008400000BF14E08021214101EA050000F014F806
:10085000012000F01DF8FFF7DBFF012802D1802006
:1008600020410643002000F013F8601CC4B2082C9D
:10087000E8DB304670BD000010B5044622464FF458
:1008800080710248FFF7D1FE10BD00000008014052
:1008900010B5044622464FF400710248FFF7C5FE2A
:1008A00010BD00000008014010B5044622464FF478
:1008B00080510248FFF7B9FE10BD0000000801405A
:1008C000704770B500240EE00021204600F0F3F8D8
:1008D000002504E0002000F0B2F9681CC5B2802DAC
:1008E000F8DB601CC4B2082CEEDB70BD08B501213A
:1008F000082000F0B5F914208DF8030003208DF8CE
:1009000002004FF48070ADF8000069460A48FFF716
:10091000EBFD4FF40070ADF8000069460648FFF7A4
:10092000E3FD012211020448FFF77FFE012251027C
:100930000148FFF77AFE08BD000C014070B505467E
:10094000002419E080202041284008B1012000E067
:10095000002002464FF400710E48FFF766FE0122A8
:1009600011020C48FFF761FE00224FF48071094824
:10097000FFF75BFE601CC4B2082CE3DB012211020E
:100980000448FFF752FE00224FF480710148FFF740
:100990004CFE70BD000C014010B5012251020A4806
:1009A000FFF743FE012211020748FFF73EFE002237
:1009B0004FF400710448FFF738FE00224FF48071B5
:1009C0000148FFF732FE10BD000C014010B50022B7
:1009D0004FF400710648FFF728FE01221102044877
:1009E000FFF723FE012251020148FFF71EFE10BD52
:1009F000000C014070B5002406E0002500E06D1CED
:100A0000B5F57A7FFBD3641CB4F57A7FF5D3FFF795
:100A10006DFFAE2000F003F9D52000F000F9802032
:100A200000F0FDF8A82000F0FAF83F2000F0F7F8F9
:100A3000D32000F0F4F8002000F0F1F8402000F09E
:100A4000EEF8A12000F0EBF8C82000F0E8F8DA207A
:100A500000F0E5F8122000F0E2F8812000F0DFF865
:100A6000CF2000F0DCF8D92000F0D9F8F12000F018
:100A7000D6F8DB2000F0D3F8302000F0D0F8A42026
:100A800000F0CDF8A62000F0CAF88D2000F0C7F8DD
:100A9000142000F0C4F8AF2000F0C1F8FFF711FFF8
:100AA00070BD10B50246012000E050430B1EA1F1BD
:100AB0000101FAD110BD70B505460C4645F0B000F5
:100AC00000F0ADF8102141EA141000F0A8F804F08D
:100AD0000F0000F0A4F870BD2DE9F04105460E4668
:100AE0001746721ED206110E6A1E5206100EFFF72E
:100AF000E2FF002409E0A7F12001134A02EB0111F3
:100B0000085D00F09CF8601CC4B2082CF3DB721E78
:100B1000D206110E6A1E012303EB4202D0B2FFF788
:100B2000CAFF00240BE0A7F12001074A02EB0112E3
:100B300004F10801505C00F082F8601CC4B2082C7B
:100B4000F1DBBDE8F0810000741300082DE9F047E7
:100B500080460E4617461D46002415E0281B411E00
:100B60000A20FFF79EFFB7FBF0F00A21B0FBF1F27D
:100B700001FB120000F130093019C1B24A4640466B
:100B8000FFF7AAFF601CC4B2AC42E7DBBDE8F08708
:100B90002DE9F0478146884615461E46002D06DBA6
:100BA000202241464846FFF797FF2F4605E02D22B9
:100BB00041464846FFF790FF6F42002417E0301B84
:100BC000411E0A20FFF76DFFB7FBF0F00A21B0FBD2
:100BD000F1F201FB120000F1300A08EB0400401CA6
:100BE000C1B252464846FFF777FF601CC4B2B44218
:100BF000E5DBBDE8F0872DE9F04107460E461546D6
:100C0000002407E02A5D3019C1B23846FFF764FFBF
:100C1000601CC4B2285D0028F4D1BDE8F08110B595
:100C20000446FFF7B9FE7820FFF788FE0020FFF7A3
:100C300085FE2046FFF782FEFFF7C8FE10BD10B507
:100C40000446FFF7A9FE7820FFF778FE4020FFF763
:100C500075FE2046FFF772FEFFF7B8FE10BD704725
:100C600029B1064A92690243044B9A6104E0034A9F
:100C700092698243014B9A61704700000010024064
:100C8000704710B500F002F810BD00000CB5002050
:100C9000019000903348006840F48030314908608A
:100CA00000BF3048006800F4003000900198401CFC
:100CB0000190009818B90198B0F5A06FF1D12948BA
:100CC000006800F4003010B10120009001E0002025
:100CD00000900098012843D12348006840F010009C
:100CE000214908600846006820F0030008600846B3
:100CF000006840F0020008601A48406819494860DE
:100D00000846406848600846406840F48060486093
:100D10000846406820F47C1048600846406840F46B
:100D2000E81048600846006840F08070086000BF26
:100D30000C48006800F000700028F9D009484068AD
:100D400020F00300074948600846406840F0020070
:100D5000486000BF0348406800F00C000828F9D143
:100D60000CBD00000010024000200240704700004F
:100D700010B51348006840F00100114908600846AA
:100D80004068104908400E494860084600680E490E
:100D900008400B4908600846006820F4802008607D
:100DA0000846406820F4FE0048604FF41F00886049
:100DB000FFF767FF4FF000600449086010BD0000B6
:100DC000001002400000FFF8FFFFF6FE08ED00E013
:100DD00000BFFEE770B504460D4616462046FFF7F5
:100DE000F1FA28B14AA201210846FFF704FF04E006
:100DF00049A201210846FFF7FEFE6420FFF751FBE0
:100E000094F90220022304211846FFF79FFE44A212
:100E100006210220FFF7EFFE94F9032001230721AA
:100E20000220FFF793FE3FA208210220FFF7E3FE16
:100E300094F90020022304210320FFF787FE38A243
:100E400006210320FFF7D7FE94F901200123072193
:100E50000320FFF77BFE34A208210320FFF7CBFE1F
:100E600032480078002852D13078022808D12F4823
:100E7000007808B9012000E000202C49087046E005
:100E800004222946002000F06AF994F9020095F93D
:100E90000110884205DB94F9020095F900108842A0
:100EA00014DDFFF741FC6420FFF7FBFAFFF73CFC81
:100EB0006420FFF7F6FAFFF737FC6420FFF7F1FA3A
:100EC000FFF732FC4FF42F70FFF7EBFA94F90000B4
:100ED00095F90310884205DB94F9000095F902109A
:100EE000884214DDFFF736FC6420FFF7DAFAFFF7DB
:100EF00031FC6420FFF7D5FAFFF72CFC6420FFF7E4
:100F0000D0FAFFF727FC4FF42F70FFF7CAFA70BD35
:100F10004572726F7200000057656C636F6D6500FB
:100F20002E00000021430000255248000000002050
:100F300070B504460E4615466BA201210846FFF720
:100F40005AFE6BA201210320FFF755FE69A2092179
:100F50000320FFF750FE68A201210220FFF74BFE9D
:100F600066A209210220FFF746FE94F90020022321
:100F700004211846FFF70CFE94F9012002230421F6
:100F80000320FFF705FEA078642807D194F902201A
:100F900003230C210220FFF7FBFD06E094F9022059
:100FA00002230C211846FFF7F3FD94F903200223D6
:100FB0000C210320FFF7ECFD307802280AD12878B5
:100FC000401C28702878C11700EB91718910A0EBA4
:100FD000810129703078032825D12878205C401CB5
:100FE00040B22978605494F90000502801DD502067
:100FF000207094F90200642801DD6420A07094F947
:10100000010094F90010884203DB6078401E40B272
:10101000607094F9030094F90210884203DBE078D1
:10102000401E40B2E0703078042826D12878205C39
:10103000401E40B22978605494F9010010F1280F45
:1010400001DAD820207094F90300002801DA00208A
:10105000A07094F9000094F90110884203DC207814
:10106000401C40B2207094F9020094F903108842A9
:1010700003DCA078401C40B2A070287828B920A2D8
:1010800007210220FFF7B7FD04E01EA2072102207E
:10109000FFF7B1FD2878012805D119A20721032007
:1010A000FFF7A9FD04E017A207210320FFF7A3FD26
:1010B0002878022804D112A20F21FFF79CFD04E03A
:1010C00010A20F210220FFF796FD2878032804D1F3
:1010D0000BA20F21FFF78FFD04E00AA20F210320CE
:1010E000FFF789FD70BD000053657474696E670079
:1010F000545F3A00485F3A00545E3A00485E3A0056
:101100003C0000002020000010B5FFF757FB10BD89
:101110002DE9F04104460E461746002500F074F80C
:10112000FFF780FB0220FFF787FBC4F30740FFF7C0
:1011300083FBC4F30720FFF77FFBE0B2FFF77CFBE4
:1011400000BF04E0705DFFF777FB681C85B2BD420D
:10115000F8DBFFF76CFB00F03FF8BDE8F0812DE90C
:10116000F04104460E4617460025FFF75BFB0320BF
:10117000FFF762FBC4F30740FFF75EFBC4F30720F1
:10118000FFF75AFBE0B2FFF757FB00BF05E0FF2077
:10119000FFF752FB40B270556D1CBD42F7D3FFF70D
:1011A00046FBBDE8F08110B5044600F02DF8FFF7CE
:1011B00039FB2020FFF740FBC4F30740FFF73CFB5F
:1011C000C4F30720FFF738FBE0B2FFF735FBFFF76A
:1011D0002EFB00F001F810BD10B50A4CFFF722FB02
:1011E0000520FFF729FB02E0641E04B906E0FF209A
:1011F000FFF722FB00F001000028F5D100BFFFF748
:1012000016FB10BDA086010010B5FFF70BFB0620F2
:10121000FFF712FBFFF70BFB10BD0000FFF70CFA06
:1012200004224B490020FFF79AFF0422494990020B
:10123000FFF795FF464890F9000050281FDC44480E
:1012400090F9010010F1280F19DB414890F90200D4
:10125000642814DC3E4890F9030000280FDB3C486A
:1012600090F901003A4991F90010884207DC3848AA
:1012700090F90300364991F90210884208DD0520F3
:10128000334948701E2008701420C87050208870A0
:1012900031A201210220FFF7AEFC30A20121032080
:1012A000FFF7A9FC53E0FFF7D7F92D49087008466E
:1012B0000078012834D12B48007868B901202949E9
:1012C0000870002028490870FFF7FBFA0422204923
:1012D0000020FFF744FF23E02248007801281FD1B7
:1012E0000020FFF760FF042219490020FFF710FFDC
:1012F0001EA201210420FFF77EFC40F2DC50FFF724
:10130000D0F8002017490870FFF7DBFA12A201217C
:101310000220FFF770FC11A201210320FFF76BFCF4
:101320001048007810B101280FD108E00C4A084994
:101330000848FFF74FFD0748FFF78CF806E00A4A18
:1013400007490348FFF7F4FD00E000BF00BFAAE72C
:101350000C00002008000020283A0000293A000074
:1013600010000020110000201200002053455420DE
:101370004F4B0000000000000000000000000000D3
:1013800000000000000000000C12120C0000000021
:1013900000000000000000FCA800000000304847EA
:1013A0004830000040C07840C0784000043F04044A
:1013B0003F040400007088FC08300000001820FF83
:1013C000211E0000F008F000E018000000211C03BE
:1013D0001E211E0000F00888700000001E2123243A
:1013E0001927211010160E00000000000000000058
:1013F00000000000000000FCA8000000003048478A
:101400004830000018261800C03038C07886877829
:1014100001020201404080F0804040000202010FC2
:1014200001020200000000F0000000000101011FA5
:1014300001010100000000000000000080B0700009
:101440000000000000000000000000000001010199
:101450000101010100000000000000000030300028
:101460000000000000000000806018040060180602
:101470000100000000E010080810E000000F10203C
:1014800020100F00001010F8000000000020203F86
:101490002020000000700808088870000030282410
:1014A00022213000003008888848300000182020B1
:1014B00020110E000000C02010F8000000070424D6
:1014C000243F240000F8088888080800001921201B
:1014D00020110E0000E0108888180000000F112075
:1014E00020110E0000380808C83808000000003F2E
:1014F000000000000070880808887000001C22218D
:1015000021221C0000E010080810E0000000312239
:1015100022110F00000000C0C000000000000030D9
:10152000300000000000008000000000000080602B
:101530000000000080C060301000000003070D199B
:1015400011010101404040404040400004040404B7
:10155000040404000008102040800000002010084F
:1015600004020100007048080808F0000000003084
:1015700036010000C030C828E810E0000718272412
:1015800023140B000000C038E0000000203C2302C0
:101590000227382008F8888888700000203F202023
:1015A00020110E00C0300808080838000718202055
:1015B0002010080008F808080810E000203F20204C
:1015C00020100F0008F88888E8081000203F20202D
:1015D0002320180008F88888E8081000203F200021
:1015E00003000000C0300808083800000718202059
:1015F000221E020008F808000008F808203F210118
:1016000001213F20000808F8080800000020203FC2
:101610002020000000000808F8080800C080808032
:101620007F00000008F888C028180800203F20012B
:101630002638200008F8080000000000203F202085
:101640002020300008F8F800F8F80800203F003F9C
:10165000003F200008F830C00008F808203F2000B4
:1016600007183F00E01008080810E0000F102020C5
:1016700020100F0008F808080808F000203F21019A
:1016800001010000E01008080810E0000F182424F1
:1016900038504F0008F8888888887000203F200064
:1016A000030C30200070880808083800003820211A
:1016B00021221C00180808F8080818000000203F24
:1016C0002000000008F808000008F808001F20208B
:1016D00020201F000878880000C83808000007385C
:1016E0000E010000F80800F80008F800033C0700AD
:1016F000073C0300081868808068180820302C0315
:10170000032C30200838C800C83808000000203FEB
:101710002000000010080808C838080020382621DA
:1017200020201800000000FE020202000000007FDE
:1017300040404000000C30C00000000000000001EC
:101740000638C00000020202FE00000000404040D7
:101750007F000000C06030F8F83060C00000003F3B
:101760003F000000000000F8F8000000060C183FE1
:101770003F180C06000202040000000000000000F8
:1017800000000000000080808080000000192422FA
:1017900022223F2008F8008080000000003F112036
:1017A00020110E000000008080800000000E11203B
:1017B00020201100000000808088F800000E112019
:1017C00020103F200000808080800000001F222227
:1017D00022221300008080F0888888180020203F93
:1017E000202000000000808080808000006B9494A6
:1017F0009493600008F8008080800000203F210062
:1018000000203F2000809898000000000020203F2A
:1018100020200000000000809898000000C0808018
:10182000807F000008F8000080808000203F2402B4
:101830002D302000000808F8000000000020203FA4
:10184000202000008080808080808000203F200059
:101850003F20003F8080008080800000203F2100EA
:1018600000203F200000808080800000001F20209A
:1018700020201F00808000808000000080FFA120C9
:1018800020110E000000008080808000000E1120DA
:1018900020A0FF80808080008080800020203F2169
:1018A000200001000000808080808000003324241C
:1018B00024241900008080E0808000000000001FC8
:1018C000202000008080000000808000001F202079
:1018D00020103F20808080000080808000010E303A
:1018E0000806010080800080008080800F300C039B
:1018F0000C300F0000808000808080000020312E9E
:101900000E312000808080000080808080818E7079
:101910001806010000808080808080000021302C2B
:101920002221300000000000807C02020000000044
:10193000003F404000000000FF00000000000000E9
:10194000FF0000000002027C800000000040403FD9
:10195000000000000002010202040200000000007A
:10196000000000008419000800000020140000009E
:1019700028010008981900081400002064060000DF
:1019800044010008000000040010000000000000F6
:0819900000000000000000004F
:04000005080000ED02
:00000001FF
