:020000040800F2
:10000000880600208901000815090008610600081B
:100010000D08000843020008FD1000080000000061
:100020000000000000000000000000007D0D00083E
:10003000CD040008000000003B0D0008690E000818
:10004000A3010008A3010008A3010008A301000800
:10005000A3010008A3010008A3010008A3010008F0
:10006000A3010008A3010008A3010008A3010008E0
:10007000A3010008A3010008A3010008A3010008D0
:10008000A3010008A3010008A3010008A3010008C0
:10009000A3010008A3010008A3010008A3010008B0
:1000A000A3010008A3010008A3010008A3010008A0
:1000B000CD0E0008A3010008A3010008A301000859
:1000C000A3010008A3010008A3010008A301000880
:1000D000A3010008A3010008A3010008A301000870
:1000E000A3010008A3010008A301000800F002F822
:1000F00000F03AF80AA090E8000C82448344AAF188
:100100000107DA4501D100F02FF8AFF2090EBAE885
:100110000F0013F0010F18BFFB1A43F0010318473B
:10012000D41B0000F41B0000103A24BF78C878C12B
:10013000FAD8520724BF30C830C144BF04680C60ED
:10014000704700000023002400250026103A28BF35
:1001500078C1FBD8520728BF30C148BF0B60704739
:100160001FB51FBD10B510BD00F031F81146FFF7E7
:10017000F7FF01F013FA00F04FF803B4FFF7F2FFB6
:1001800003BC00F057F800000948804709480047C1
:10019000FEE7FEE7FEE7FEE7FEE7FEE7FEE7FEE737
:1001A000FEE7FEE704480549054A064B7047000094
:1001B0006D0E0008ED000008880000208806002071
:1001C00088020020880200207047704770477546FB
:1001D00000F02CF8AE4605006946534620F00700B3
:1001E000854618B020B5FFF7DDFFBDE820404FF091
:1001F00000064FF000074FF000084FF0000B21F011
:100200000701AC46ACE8C009ACE8C009ACE8C009DD
:10021000ACE8C0098D46704710B50446AFF30080C6
:100220002046BDE81040FFF7A8BF00000048704717
:100230002800002001491820ABBEFEE7260002007E
:10024000704700BFFEE7000008B50121082000F05C
:1002500085FD10208DF803000002ADF8000003209A
:100260008DF802006946044800F054F94FF48051BB
:10027000014800F0EEF908BD000C014010B54FF444
:100280008051084800F0DAF928B94FF48051054848
:1002900000F0DFF904E04FF48051024800F0D7F994
:1002A00010BD0000000C014010B50024002000F03B
:1002B00045F804E0601CC4B2012000F014F94FF4CA
:1002C00000510F4800F0B1F908B1642CF2DB642C46
:1002D00001DB012010BD002404E0601CC4B2012039
:1002E00000F001F94FF40051054800F09EF908B9FB
:1002F000642CF2DB642C01DB0120EBE70020E9E752
:10030000000C014008B50121082000F027FD4FF442
:100310000050ADF8000014208DF8030003208DF884
:1003200002006946044800F0F5F84FF40051024815
:1003300000F08FF908BD0000000C014038B50446FC
:1003400054B14FF40050ADF8000003208DF80200C6
:1003500010208DF8030006E04FF40050ADF80000C7
:1003600004208DF803006946014800F0D3F838BD39
:10037000000C014010B5002404E0601CC4B2012050
:1003800000F0B1F84FF40051104800F04EF908B1F8
:10039000642CF2DB002404E0601CC4B2012000F0F5
:1003A000A2F84FF40051094800F03FF908B9642C55
:1003B000F2DB232000F097F84FF40051034800F0DF
:1003C00034F908B1012010BD0020FCE7000C014009
:1003D00070B50025002407E0FFF7CCFF10B18020A6
:1003E00020410543601CC4B2082CF5DB284670BDD3
:1003F0007CB5054600F02CF8FFF756FF18BB00242B
:1004000005E0FFF7E5FF0DF80400601CC4B2052C01
:10041000F7DB9DF800009DF8011008449DF80210DC
:1004200008449DF8031008449DF8041088420CD13C
:10043000002405E01DF8040040B22855601CC4B239
:10044000052CF7DB01E001207CBD0020FCE700006B
:1004500010B50120FFF772FF4FF40051074800F07C
:10046000F6F8122000F033F84FF40051034800F082
:10047000F0F8142000F037F810BD0000000C014027
:1004800010B504460F48008880B1042221460E486A
:10049000006800F0FDFF0C480068001D0A49086074
:1004A00008480088401E0749088009E04FF4805042
:1004B00005490860801003490880800001F033F886
:1004C00010BD00000600002008000020704700B5A5
:1004D000034603E04FF47A7000F005F8181EA3F10C
:1004E0000103F7D100BD00EBC001C9004FF0E022CD
:1004F0005161002191610521116100BF4FF0E021A0
:10050000096901F480310029F8D004214FF0E0227C
:10051000116170472DE9F0410246002500260020B8
:1005200000230024002791F803C00CF00F0591F878
:1005300003C00CF0100CBCF1000F03D091F802C006
:100540004CEA050591F800C0BCF1000F31D01468E9
:1005500000202BE04FF0010C0CFA00F3B1F800C0C2
:100560000CEA03069E4220D183004FF00F0C0CFAD8
:1005700003F7BC4305FA03FC4CEA040491F803C0FA
:10058000BCF1280F06D14FF0010C0CFA00FCC2F8A8
:1005900014C00AE091F803C0BCF1480F05D14FF038
:1005A000010C0CFA00FCC2F810C0401C0828D1D382
:1005B0001460B1F800C0BCF1FF0F34DD54680020B6
:1005C0002EE000F1080C4FF0010808FA0CF3B1F826
:1005D00000C00CEA03069E4221D183004FF00F0CAD
:1005E0000CFA03F7BC4305FA03FC4CEA040491F847
:1005F00003C0BCF1280F05D100F1080C08FA0CF873
:10060000C2F8148091F803C0BCF1480F07D100F183
:10061000080C4FF0010808FA0CF8C2F81080401CD2
:100620000828CED35460BDE8F081024600209368CC
:100630000B400BB1012000E0002070470246002073
:10064000D3680B400BB1012000E0002070474161EE
:100650007047016170470AB1016100E04161704774
:1006600000BFFEE710B500F033FA00F00DFF00F018
:100670006FF800F0AFF8FFF745FEFFF7E5FD00F07B
:10068000A9F800F0FDFC10BD10B5002440210C4875
:10069000FFF7CBFF00B9012410210948FFF7C5FF80
:1006A00000B9022404210648FFF7BFFF00B9032464
:1006B00001210348FFF7B9FF00B90424204610BD0B
:1006C0000008014010B51A4800781A490870FFF771
:1006D000DBFF1749087017480078012806D1084643
:1006E000007818B90120144908701FE011480078FB
:1006F000022806D10E48007818B902200E49087069
:1007000014E00C480078032806D10948007818B98D
:1007100003200949087009E006480078042805D13B
:100720000348007810B904200349087010BD000088
:1007300001000020020000200000002000200349EA
:1007400008780021014A1170704700000000002065
:1007500008B50121042000F001FB48208DF80300BA
:100760005520ADF8000003208DF8020069460248CC
:10077000FFF7D0FE08BD00000008014010B54FF49F
:1007800080410848FFF75AFF28B94FF480410548D7
:10079000FFF75FFF04E04FF480410248FFF757FF87
:1007A00010BD0000000C014010B54FF40041084896
:1007B000FFF744FF28B94FF400410548FFF749FF10
:1007C00004E04FF400410248FFF741FF10BD000074
:1007D000000C014008B50121082000F0BFFA1020EC
:1007E0008DF803004FF44040ADF8000003208DF871
:1007F000020069460448FFF78DFE4FF4404102486D
:10080000FFF727FF08BD0000000C014000BFFEE716
:1008100008B50121042000F0A1FA10208DF8030092
:100820004FF49850ADF8000003208DF8020069469F
:100830000B48FFF76FFE48208DF803004FF400606F
:10084000ADF8000003208DF8020069460448FFF768
:1008500061FE012000F052F8002000F043F808BDCE
:100860000008014010B54FF400610248FFF7DDFEBB
:1008700010BD00000008014010B5002000F03EF857
:1008800010BD10B5012000F039F810BD70B5054657
:100890000026002400BF14E08021214101EA050068
:1008A00000F014F8012000F01DF8FFF7DBFF01282D
:1008B00002D1802020410643002000F013F8601C84
:1008C000C4B2082CE8DB304670BD000010B5044609
:1008D00022464FF480710248FFF7BDFE10BD0000B4
:1008E0000008014010B5044622464FF4007102484A
:1008F000FFF7B1FE10BD00000008014010B504462E
:1009000022464FF480510248FFF7A5FE10BD0000BB
:10091000000801407047000070B5002100230F223D
:10092000C47804B3154C246804F4E064C4F5E064AE
:10093000210AC1F10403CA40447804FA03F184781F
:100940001440214309010E4C0678A155047804F0A7
:100950001F050124AC4005786D11AD0005F1E025BF
:10096000C5F8004109E0047804F01F050124AC40FB
:10097000044D0678761145F8264070BD0CED00E078
:1009800000E400E080E100E002490143024A116016
:10099000704700000000FA050CED00E070B500247F
:1009A0000EE00021204600F0F4F8002504E00020CD
:1009B00000F0B3F9681CC5B2802DF8DB601CC4B22E
:1009C000082CEEDB70BD000008B50121082000F006
:1009D000C5F914208DF8030003208DF802004FF4B0
:1009E0008070ADF8000069460A48FFF793FD4FF4A8
:1009F0000070ADF8000069460648FFF78BFD012244
:100A000011020448FFF727FE012251020148FFF7B7
:100A100022FE08BD000C014070B50546002419E017
:100A200080202041284008B1012000E0002002463B
:100A30004FF400710E48FFF70EFE012211020C4820
:100A4000FFF709FE00224FF480710948FFF703FE0B
:100A5000601CC4B2082CE3DB012211020448FFF73A
:100A6000FAFD00224FF480710148FFF7F4FD70BDDC
:100A7000000C014010B5012251020A48FFF7EBFDBE
:100A8000012211020748FFF7E6FD00224FF4007132
:100A90000448FFF7E0FD00224FF480710148FFF7A2
:100AA000DAFD10BD000C014010B500224FF40071BA
:100AB0000648FFF7D0FD012211020448FFF7CBFDE5
:100AC000012251020148FFF7C6FD10BD000C014094
:100AD00070B5002406E0002500E06D1CB5F57A7FB6
:100AE000FBD3641CB4F57A7FF5D3FFF76DFFAE201E
:100AF00000F003F9D52000F000F9802000F0FDF8A7
:100B0000A82000F0FAF83F2000F0F7F8D32000F01A
:100B1000F4F8002000F0F1F8402000F0EEF8A120F9
:100B200000F0EBF8C82000F0E8F8DA2000F0E5F873
:100B3000122000F0E2F8812000F0DFF8CF2000F072
:100B4000DCF8D92000F0D9F8F12000F0D6F8DB204D
:100B500000F0D3F8302000F0D0F8A42000F0CDF859
:100B6000A62000F0CAF88D2000F0C7F8142000F08D
:100B7000C4F8AF2000F0C1F8FFF710FF70BD10B54A
:100B80000246012000E050430B1EA1F10101FAD101
:100B900010BD70B505460C4645F0B00000F0ADF84C
:100BA000102141EA141000F0A8F804F00F0000F042
:100BB000A4F870BD2DE9F04105460E461746721E99
:100BC000D206110E6A1E5206100EFFF7E2FF002435
:100BD00009E0A7F12001134A02EB0111085D00F0C2
:100BE0009CF8601CC4B2082CF3DB721ED206110EF6
:100BF0006A1E012303EB4202D0B2FFF7CAFF0024B2
:100C00000BE0A7F12001074A02EB011204F10801F1
:100C1000505C00F082F8601CC4B2082CF1DBBDE827
:100C2000F0810000041700082DE9F04780460E46C9
:100C300017461D46002415E0281B411E0A20FFF719
:100C40009EFFB7FBF0F00A21B0FBF1F201FB1200AE
:100C500000F130093019C1B24A464046FFF7AAFFF9
:100C6000601CC4B2AC42E7DBBDE8F0872DE9F04779
:100C70008146884615461E46002D06DB2022414649
:100C80004846FFF797FF2F4605E02D22414648468C
:100C9000FFF790FF6F42002417E0301B411E0A202F
:100CA000FFF76DFFB7FBF0F00A21B0FBF1F201FB9B
:100CB000120000F1300A08EB0400401CC1B2524699
:100CC0004846FFF777FF601CC4B2B442E5DBBDE8DD
:100CD000F0872DE9F04107460E461546002407E04F
:100CE0002A5D3019C1B23846FFF764FF601CC4B2F8
:100CF000285D0028F4D1BDE8F08110B50446FFF767
:100D0000B9FE7820FFF788FE0020FFF785FE204619
:100D1000FFF782FEFFF7C8FE10BD10B50446FFF7CF
:100D2000A9FE7820FFF778FE4020FFF775FE2046E9
:100D3000FFF772FEFFF7B8FE10BD704729B1064AF3
:100D4000D2690243044BDA6104E0034AD269824368
:100D5000014BDA61704700000010024029B1064AD9
:100D600092690243044B9A6104E0034A9269824308
:100D7000014B9A617047000000100240704710B5A7
:100D800000F002F810BD00000CB5002001900090AA
:100D90003348006840F480303149086000BF304873
:100DA000006800F4003000900198401C0190009809
:100DB00018B90198B0F5A06FF1D12948006800F486
:100DC000003010B10120009001E000200090009858
:100DD000012843D12348006840F0100021490860F1
:100DE0000846006820F0030008600846006840F0EC
:100DF000020008601A48406819494860084640687F
:100E000048600846406840F4806048600846406892
:100E100020F47C1048600846406840F4E8104860C0
:100E20000846006840F08070086000BF0C48006809
:100E300000F000700028F9D00948406820F0030055
:100E4000074948600846406840F00200486000BF1B
:100E50000348406800F00C000828F9D10CBD0000E0
:100E600000100240002002407047000010B51348F7
:100E7000006840F0010011490860084640681049C8
:100E800008400E494860084600680E4908400B4972
:100E900008600846006820F4802008600846406822
:100EA00020F4FE0048604FF41F008860FFF767FFE2
:100EB0004FF000600449086010BD000000100240BF
:100EC0000000FFF8FFFFF6FE08ED00E010B501217D
:100ED000880700F063F8012841D121480068401CD0
:100EE0001F49086008460068B0F5FA7F09D3002062
:100EF00008601C48007808B9012000E0002019496A
:100F0000087004211848FFF790FB20B10121164812
:100F1000FFF78BFB68B915480068401C134908604F
:100F200008460068B0F5487F08D3012010490870D2
:100F300004E000200D4908600D4908700D48006864
:100F4000401C0C49086008460068142803D30020A0
:100F50000860FFF7B7FB0121880700F010F810BD0B
:100F60001C00002017000020000801402000002085
:100F70001800002024000020CA4302827047CA43A0
:100F80000282704721B1028842F00102028004E02F
:100F900002884FF6FE731A400280704730B5024651
:100FA000002000230024158A05EA0103958905EA3B
:100FB000010413B10CB1012000E0002030BD1AB1D2
:100FC00083890B43838102E083898B43838170474C
:100FD00001894FF6F87211400181704700220288A2
:100FE0001D4B98420ED01D4B98420BD0B0F1804F54
:100FF00008D01B4B984205D01A4B984202D01A4B8E
:10100000984204D14FF68F731A404B881A43174BFE
:10101000984207D0164B984204D04FF6FF431A402F
:10102000CB881A4302808B8883850B8803850A4B03
:1010300098420BD0094B984208D00E4B984205D0ED
:101040000D4B984202D00D4B984201D10B7A03868A
:101050000123838270470000002C014000340140CE
:101060000004004000080040000C00400010004058
:10107000001400400040014000440140004801408D
:101080001FB501210846FFF759FE4FF08040FFF7DA
:101090009FFF0020ADF80A00ADF806000920ADF86A
:1010A000080041F61F40ADF8040000208DF80C0048
:1010B00001A94FF08040FFF791FF01218807FFF75A
:1010C0005BFF012211469007FFF779FF4FF4A06004
:1010D000FFF75AFC1C208DF8000001208DF803005A
:1010E00002208DF8010001208DF802006846FFF70C
:1010F00013FC01218807FFF745FF1FBD00BFFEE776
:1011000070B504460D4616462046FFF771F928B122
:1011100052A201210846FFF7DCFD04E051A20121A3
:101120000846FFF7D6FD6420FFF7D1F994F90220B5
:10113000022304211846FFF777FD4CA20621022066
:10114000FFF7C7FD94F90320012307210220FFF7D1
:101150006BFD47A208210220FFF7BBFD94F9002098
:10116000022304210320FFF75FFD40A20621032094
:10117000FFF7AFFD94F90120012307210320FFF7BA
:1011800053FD3CA208210320FFF7A3FD3A48007855
:10119000002862D13078022808D13748007808B991
:1011A000012000E000203449087056E0042229465E
:1011B000002000F094F994F9020095F9011088429A
:1011C00005DB94F9020095F9001088421CDDFFF759
:1011D00055F8FFF7D3FA6420FFF779F9FFF74EF8D7
:1011E000FFF7CCFA6420FFF772F9FFF747F8FFF733
:1011F000C5FA6420FFF76BF9FFF740F8FFF7BEFA76
:101200004FF42F70FFF763F994F9000095F903107C
:10121000884205DB94F9000095F9021088421CDD34
:10122000FFF72CF8FFF7C0FA6420FFF750F9FFF73B
:1012300025F8FFF7B9FA6420FFF749F9FFF71EF820
:10124000FFF7B2FA6420FFF742F9FFF717F8FFF74C
:10125000ABFA4FF42F70FFF73AF970BD4572726F19
:101260007200000057656C636F6D65002E00000012
:101270002143000025524800040000202DE9F041E0
:1012800004460F4615461E46DDF8188075A201215A
:101290000846FFF71EFD75A201210320FFF719FD87
:1012A00073A209210320FFF714FD72A2012102207D
:1012B000FFF70FFD70A209210220FFF70AFD94F944
:1012C0000020022304211846FFF7D0FC94F90120E6
:1012D000022304210320FFF7C9FC94F90220022312
:1012E0000C211846FFF7C2FC94F9032002230C21BD
:1012F0000320FFF7BBFC387802280AD12878401C6D
:1013000028702878C11700EB91718910A0EB81013A
:1013100029703878032807D004215848FFF785F949
:1013200040BB98F8000028B32878205C401C40B2ED
:101330002978605494F90000502801DD5020207075
:1013400094F90200632801DD6320A07094F9010084
:1013500094F90010884203DB6078401E40B2607050
:1013600094F9030094F90210884203DBE078401EF0
:1013700040B2E0703878042807D001213F48FFF7D9
:1013800054F948BB98F8000030B32878205C401E20
:1013900040B22978605494F9010010F1280F01DA65
:1013A000D820607094F90300002801DA0020E07072
:1013B00094F9000094F90110884203DC2078401C65
:1013C00040B2207094F9020094F90310884203DCC3
:1013D000A078401C40B2A070287840B9307801282D
:1013E00005D127A207210220FFF773FC04E025A204
:1013F00007210220FFF76DFC2878012808D13078FA
:10140000012805D11EA207210320FFF762FC04E09A
:101410001CA207210320FFF75CFC2878022808D1D2
:101420003078012805D116A20F210220FFF751FCC8
:1014300004E014A20F210220FFF74BFC28780328B8
:1014400008D13078012805D10DA20F210320FFF724
:1014500040FC04E00BA20F210320FFF73AFCBDE89B
:10146000F081000053657474696E6700545F3A0040
:10147000485F3A00545E3A00485E3A000008014076
:101480003C0000002020000010B5FFF7C1F910BD9E
:101490002DE9F04104460E461746002500F074F889
:1014A000FFF7EAF90220FFF7F1F9C4F30740FFF76D
:1014B000EDF9C4F30720FFF7E9F9E0B2FFF7E6F929
:1014C00000BF04E0705DFFF7E1F9681C85B2BD4222
:1014D000F8DBFFF7D6F900F03FF8BDE8F0812DE921
:1014E000F04104460E4617460025FFF7C5F90320D4
:1014F000FFF7CCF9C4F30740FFF7C8F9C4F307209E
:10150000FFF7C4F9E0B2FFF7C1F900BF05E0FF2023
:10151000FFF7BCF940B270556D1CBD42F7D3FFF721
:10152000B0F9BDE8F08110B5044600F02DF8FFF7E2
:10153000A3F92020FFF7AAF9C4F30740FFF7A6F9A3
:10154000C4F30720FFF7A2F9E0B2FFF79FF9FFF716
:1015500098F900F001F810BD10B50A4CFFF78CF9AE
:101560000520FFF793F902E0641E04B906E0FF20AE
:10157000FFF78CF900F001000028F5D100BFFFF75C
:1015800080F910BDA086010010B5FFF775F906209F
:10159000FFF77CF9FFF775F910BD000008B5FFF7FC
:1015A00061F804224C490020FFF799FF04224B49BF
:1015B0009002FFF794FF484890F9000050281FDC84
:1015C000454890F9010010F1280F19DB424890F9C5
:1015D0000200642814DC404890F9030000280FDB67
:1015E0003D4890F901003C4991F90010884207DC20
:1015F000394890F90300384991F90210884208DD12
:101600000520354948701E2008701420C8705020ED
:10161000887033A201210220FFF75BFB31A2012178
:101620000320FFF756FB56E0FFF788F82E490870B5
:1016300008460078012834D12C48007868B9012088
:101640002A49087000202A490870FFF7A7F90422E8
:1016500021490020FFF743FF23E0244800780128B8
:101660001FD10020FFF75FFF04221B490020FFF776
:101670000FFF20A201210420FFF72BFB40F2DC50DA
:10168000FEF725FF002019490870FFF787F914A21B
:1016900001210220FFF71DFB12A201210320FFF709
:1016A00018FB1248007810B1012812D108E00E4A48
:1016B00009490A48FFF724FD0848FEF7E1FE09E062
:1016C0000E480F4B0A4A084900900348FFF7D6FD21
:1016D00000E000BF00BFA7E7100000200C000020C2
:1016E000283A0000293A00001400002015000020CC
:1016F00016000020534554204F4B000018000020D6
:1017000017000020000000000000000000000000A2
:1017100000000000000000000C12120C000000008D
:1017200000000000000000FCA80000000030484756
:101730004830000040C07840C0784000043F0404B6
:101740003F040400007088FC08300000001820FFEF
:10175000211E0000F008F000E018000000211C032A
:101760001E211E0000F00888700000001E212324A6
:101770001927211010160E000000000000000000C4
:1017800000000000000000FCA800000000304847F6
:101790004830000018261800C03038C07886877896
:1017A00001020201404080F0804040000202010F2F
:1017B00001020200000000F0000000000101011F12
:1017C00001010100000000000000000080B0700076
:1017D0000000000000000000000000000001010106
:1017E0000101010100000000000000000030300095
:1017F000000000000000000080601804006018066F
:101800000100000000E010080810E000000F1020A8
:1018100020100F00001010F8000000000020203FF2
:10182000202000000070080808887000003028247C
:10183000222130000030088888483000001820201D
:1018400020110E000000C02010F800000007042442
:10185000243F240000F80888880808000019212087
:1018600020110E0000E0108888180000000F1120E1
:1018700020110E0000380808C83808000000003F9A
:10188000000000000070880808887000001C2221F9
:1018900021221C0000E010080810E00000003122A6
:1018A00022110F00000000C0C00000000000003046
:1018B0003000000000000080000000000000806098
:1018C0000000000080C060301000000003070D1908
:1018D0001101010140404040404040000404040424
:1018E00004040400000810204080000000201008BC
:1018F00004020100007048080808F00000000030F1
:1019000036010000C030C828E810E000071827247E
:1019100023140B000000C038E0000000203C23022C
:101920000227382008F8888888700000203F20208F
:1019300020110E00C03008080808380007182020C1
:101940002010080008F808080810E000203F2020B8
:1019500020100F0008F88888E8081000203F202099
:101960002320180008F88888E8081000203F20008D
:1019700003000000C03008080838000007182020C5
:10198000221E020008F808000008F808203F210184
:1019900001213F20000808F8080800000020203F2F
:1019A0002020000000000808F8080800C08080809F
:1019B0007F00000008F888C028180800203F200198
:1019C0002638200008F8080000000000203F2020F2
:1019D0002020300008F8F800F8F80800203F003F09
:1019E000003F200008F830C00008F808203F200021
:1019F00007183F00E01008080810E0000F10202032
:101A000020100F0008F808080808F000203F210106
:101A100001010000E01008080810E0000F1824245D
:101A200038504F0008F8888888887000203F2000D0
:101A3000030C302000708808080838000038202186
:101A400021221C00180808F8080818000000203F90
:101A50002000000008F808000008F808001F2020F7
:101A600020201F000878880000C8380800000738C8
:101A70000E010000F80800F80008F800033C070019
:101A8000073C0300081868808068180820302C0381
:101A9000032C30200838C800C83808000000203F58
:101AA0002000000010080808C83808002038262147
:101AB00020201800000000FE020202000000007F4B
:101AC00040404000000C30C0000000000000000159
:101AD0000638C00000020202FE0000000040404044
:101AE0007F000000C06030F8F83060C00000003FA8
:101AF0003F000000000000F8F8000000060C183F4E
:101B00003F180C0600020204000000000000000064
:101B10000000000000008080808000000019242266
:101B200022223F2008F8008080000000003F1120A2
:101B300020110E000000008080800000000E1120A7
:101B400020201100000000808088F800000E112085
:101B500020103F200000808080800000001F222293
:101B600022221300008080F0888888180020203FFF
:101B7000202000000000808080808000006B949412
:101B80009493600008F8008080800000203F2100CE
:101B900000203F2000809898000000000020203F97
:101BA00020200000000000809898000000C0808085
:101BB000807F000008F8000080808000203F240221
:101BC0002D302000000808F8000000000020203F11
:101BD000202000008080808080808000203F2000C6
:101BE0003F20003F8080008080800000203F210057
:101BF00000203F200000808080800000001F202007
:101C000020201F00808000808000000080FFA12035
:101C100020110E000000008080808000000E112046
:101C200020A0FF80808080008080800020203F21D5
:101C30002000010000008080808080000033242488
:101C400024241900008080E0808000000000001F34
:101C5000202000008080000000808000001F2020E5
:101C600020103F20808080000080808000010E30A6
:101C70000806010080800080008080800F300C0307
:101C80000C300F0000808000808080000020312E0A
:101C90000E312000808080000080808080818E70E6
:101CA0001806010000808080808080000021302C98
:101CB0002221300000000000807C020200000000B1
:101CC000003F404000000000FF0000000000000056
:101CD000FF0000000002027C800000000040403F46
:101CE00000000000000201020204020000000000E7
:101CF00000000000141D0008000000202800000063
:101D0000280100083C1D0008280000206006000093
:101D10004401000800000000000000040010000062
:101D200000000000000000000000000000000000B3
:0C1D3000000000000000000000000000A7
:04000005080000ED02
:00000001FF
