:020000040800F2
:100000006806002089010008CD030008C503000828
:10001000C90300084302000885070008000000002B
:10002000000000000000000000000000350600088D
:100030004702000800000000110600082107000820
:10004000A3010008A3010008A3010008A301000800
:10005000A3010008A3010008A3010008A3010008F0
:10006000A3010008A3010008A3010008A3010008E0
:10007000A3010008A3010008A3010008A3010008D0
:10008000A3010008A3010008A3010008A3010008C0
:10009000A3010008A3010008A3010008A3010008B0
:1000A000A3010008A3010008A3010008A3010008A0
:1000B000A3010008A3010008A3010008A301000890
:1000C000A3010008A3010008A3010008A301000880
:1000D000A3010008A3010008A3010008A301000870
:1000E00049020008A3010008A301000800F002F87B
:1000F00000F03AF80AA090E8000C82448344AAF188
:100100000107DA4501D100F02FF8AFF2090EBAE885
:100110000F0013F0010F18BFFB1A43F0010318473B
:100120007406000094060000103A24BF78C878C115
:10013000FAD8520724BF30C830C144BF04680C60ED
:10014000704700000023002400250026103A28BF35
:1001500078C1FBD8520728BF30C148BF0B60704739
:100160001FB51FBD10B510BD00F031F81146FFF7E7
:10017000F7FF00F009FB00F04FF803B4FFF7F2FFC0
:1001800003BC00F057F800000948804709480047C1
:10019000FEE7FEE7FEE7FEE7FEE7FEE7FEE7FEE737
:1001A000FEE7FEE704480549054A064B7047000094
:1001B00025070008ED000008680000206806002000
:1001C000680200206802002070477047704775463B
:1001D00000F02CF8AE4605006946534620F00700B3
:1001E000854618B020B5FFF7DDFFBDE820404FF091
:1001F00000064FF000074FF000084FF0000B21F011
:100200000701AC46ACE8C009ACE8C009ACE8C009DD
:10021000ACE8C0098D46704710B50446AFF30080C6
:100220002046BDE81040FFF7A8BF00000048704717
:100230000400002001491820ABBEFEE726000200A2
:10024000704700BFFEE7704710B54FF4804000F0E4
:1002500015F8012808D105480088401C034908808A
:100260004FF4804000F004F810BD000000000020B2
:100270000149086070470000140401400146002055
:100280000022074B1B6803EA0102054B14331B686D
:100290000B4013B10AB1012000E0002070470000BC
:1002A000000401402DE9F04102460025002600200F
:1002B00000230024002791F803C00CF00F0591F8EB
:1002C00003C00CF0100CBCF1000F03D091F802C079
:1002D0004CEA050591F800C0BCF1000F31D014685C
:1002E00000202BE04FF0010C0CFA00F3B1F800C035
:1002F0000CEA03069E4220D183004FF00F0C0CFA4B
:1003000003F7BC4305FA03FC4CEA040491F803C06C
:10031000BCF1280F06D14FF0010C0CFA00FCC2F81A
:1003200014C00AE091F803C0BCF1480F05D14FF0AA
:10033000010C0CFA00FCC2F810C0401C0828D1D3F4
:100340001460B1F800C0BCF1FF0F34DD5468002028
:100350002EE000F1080C4FF0010808FA0CF3B1F898
:1003600000C00CEA03069E4221D183004FF00F0C1F
:100370000CFA03F7BC4305FA03FC4CEA040491F8B9
:1003800003C0BCF1280F05D100F1080C08FA0CF8E5
:10039000C2F8148091F803C0BCF1480F07D100F1F6
:1003A000080C4FF0010808FA0CF8C2F81080401C45
:1003B0000828CED35460BDE8F0810AB1016100E0A5
:1003C0004161704700BFFEE700BFFEE7704770B5B0
:1003D00000240EE00021204600F0E9F8002504E0AA
:1003E000002000F005F9681CC5B2802DF8DB601C08
:1003F000C4B2082CEEDB70BD08B50121082000F066
:1004000009F914208DF8030003208DF802004FF441
:100410008070ADF8000069460A48FFF743FF4FF4CB
:100420000070ADF8000069460648FFF73BFF012267
:1004300011020448FFF7C1FF012251020148FFF7F2
:10044000BCFF08BD000C014070B50546002419E052
:1004500080202041284008B1012000E00020024611
:100460004FF400710E48FFF7A8FF012211020C485B
:10047000FFF7A3FF00224FF480710948FFF79DFFAB
:10048000601CC4B2082CE3DB012211020448FFF710
:1004900094FF00224FF480710148FFF78EFF70BD7A
:1004A000000C014010B5012251020A48FFF785FFF8
:1004B000012211020748FFF780FF00224FF400716C
:1004C0000448FFF77AFF00224FF480710148FFF7DC
:1004D00074FF10BD000C014010B500224FF40071F4
:1004E0000648FFF76AFF012211020448FFF765FF83
:1004F000012251020148FFF760FF10BD000C0140CE
:1005000070B5002406E0002500E06D1CB5F57A7F8B
:10051000FBD3641CB4F57A7FF5D3FFF76DFFAE20F3
:1005200000F056F8D52000F053F8802000F050F885
:10053000A82000F04DF83F2000F04AF8D32000F04A
:1005400047F8002000F044F8402000F041F8A120D6
:1005500000F03EF8C82000F03BF8DA2000F038F850
:10056000122000F035F8812000F032F8CF2000F0A2
:100570002FF8D92000F02CF8F12000F029F8DB202A
:1005800000F026F8302000F023F8A42000F020F836
:10059000A62000F01DF88D2000F01AF8142000F0BD
:1005A00017F8AF2000F014F8FFF711FF70BD70B519
:1005B00005460C4645F0B00000F00AF8102141EA6B
:1005C000141000F005F804F00F0000F001F870BD01
:1005D00010B50446FFF766FF7820FFF735FF0020CF
:1005E000FFF732FF2046FFF72FFFFFF775FF10BD23
:1005F00010B50446FFF756FF7820FFF725FF40208F
:10060000FFF722FF2046FFF71FFFFFF765FF10BD32
:100610007047000029B1064A92690243044B9A616F
:1006200004E0034A92698243014B9A6170470000DB
:10063000001002407047704710B500F001F810BD7F
:100640000CB50020019000903348006840F48030E1
:100650003149086000BF3048006800F40030009065
:100660000198401C0190009818B90198B0F5A06F4E
:10067000F1D12948006800F4003010B10120009049
:1006800001E0002000900098012843D12348006831
:1006900040F01000214908600846006820F003007F
:1006A00008600846006840F0020008601A48406888
:1006B000194948600846406848600846406840F468
:1006C000806048600846406820F47C104860084616
:1006D000406840F4E81048600846006840F08070C8
:1006E000086000BF0C48006800F000700028F9D0D6
:1006F0000948406820F00300074948600846406800
:1007000040F00200486000BF0348406800F00C0061
:100710000828F9D10CBD0000001002400020024062
:100720007047000010B51348006840F001001149FF
:10073000086008464068104908400E49486008466D
:1007400000680E4908400B4908600846006820F41C
:10075000802008600846406820F4FE0048604FF49E
:100760001F008860FFF768FF4FF0006004490860D1
:1007700010BD0000001002400000FFF8FFFFF6FE71
:1007800008ED00E000BFFEE7FFF7BAFEFFF753FFFA
:1007900000BFFEE7B40700080000002004000000CE
:1007A00028010008B80700080400002064060000C3
:0807B0004401000800000000F4
:04000005080000ED02
:00000001FF
